:100000000C942A000C94A90A0C94D00A0C94DA0AD5
:100010000C9447000C9447000C9447000C94470044
:100020000C9447000C9447000C9447000C94090969
:100030000C9447000C9495070C9447000C944700CF
:100040000C9447000C9447000C9447000C94470014
:100050000C94470011241FBECFE5D8E0DEBFCDBF12
:1000600013E0A0E6B0E0E2E8F9E302C005900D92EB
:10007000AA33B107D9F713E0AAE3B3E001C01D9298
:10008000A037B107E1F70E94D41A0C94BF1C0C945E
:100090000000EF92FF920F931F937B018C0120E0F1
:1000A00030E040E05FE40E94F50388238CF0C80153
:1000B000B70120E030E040E05FE40E94C1010E940F
:1000C00083049B01AC01205030404040504806C0A2
:1000D000C801B7010E9483049B01AC01B901CA01A8
:1000E0001F910F91FF90EF900895A0E0B0E0EBE733
:1000F000F0E00C94881CDC012B01FA019C919230F9
:1001000008F439C1EB018881823008F433C194309E
:1001100069F4843009F02FC111969C91119789815F
:10012000981709F428C1A1E2B2E025C1843009F48E
:1001300021C18230A9F4923009F01DC19A01AD01AC
:1001400088E0EA010990AE01E90109929E0181501F
:10015000C1F7E201898111969C918923818308C1AD
:10016000923009F407C112962D903C901397EB0141
:100170008A819B811496AD90BD90CD90DC901797AD
:10018000EC80FD800E811F819101281B390BB90184
:1001900037FF04C066277727621B730B6032710537
:1001A0000CF061C0121613066CF537014801062EDB
:1001B00004C096948794779467940A94D2F721E0C8
:1001C00030E040E050E004C0220F331F441F551FB1
:1001D0006A95D2F721503040404050402E213F21B7
:1001E00040235123211531054105510521F021E01E
:1001F00030E040E050E079018A01E628F72808293C
:1002000019293CC0232BD1F1260E371E350146019A
:10021000062E04C096948794779467940A94D2F734
:1002200021E030E040E050E004C0220F331F441FC3
:10023000551F6A95D2F721503040404050402A2146
:100240003B214C215D21211531054105510521F04E
:1002500021E030E040E050E059016A01A628B728CB
:10026000C828D9280BC0821593052CF01C01AA249C
:10027000BB24650103C0EE24FF24870111969C91E5
:10028000D20111968C91981709F445C0992339F041
:10029000A80197012A193B094C095D0906C0A6016E
:1002A00095012E193F09400B510B57FD08C01182D3
:1002B0003382228224833583468357831DC081E0A5
:1002C00081833382228288279927DC01821B930B4A
:1002D000A40BB50B84839583A683B7830DC0220F2F
:1002E000331F441F551F24833583468357838281E0
:1002F000938101979383828324813581468157813D
:10030000DA01C9010197A109B1098F5F9F4FAF4F72
:10031000BF4328F30BC0918333822282EA0CFB1C7B
:100320000C1D1D1DE482F5820683178383E0808304
:10033000248135814681578157FF1AC0C901AA27F8
:1003400097FDA095BA2F81709070A070B0705695EF
:10035000479537952795822B932BA42BB52B848318
:100360009583A683B7838281938101969383828349
:10037000DF0101C0D201CD01CDB7DEB7E2E10C94BF
:10038000A41CA0E2B0E0E7ECF1E00C94941C6983BB
:100390007A838B839C832D833E834F835887E9E048
:1003A000EE2EF12CEC0EFD1ECE010196B7010E943F
:1003B00074068E010F5E1F4FCE010596B8010E9494
:1003C00074068A8991E089278A8BC701B801AE013A
:1003D000475E5F4F0E9475000E949F05A096E6E071
:1003E0000C94B01CA0E2B0E0E8EFF1E00C94941C97
:1003F00069837A838B839C832D833E834F835887C5
:10040000F9E0EF2EF12CEC0EFD1ECE010196B701A6
:100410000E9474068E010F5E1F4FCE010596B80133
:100420000E947406C701B801AE01475E5F4F0E948B
:1004300075000E949F05A096E6E00C94B01CA0E217
:10044000B0E0E5E2F2E00C94881C69837A838B8348
:100450009C832D833E834F835887CE010196BE0136
:10046000675F7F4F0E947406CE010596BE016F5EE6
:100470007F4F0E9474069985923088F08989823076
:10048000C8F0943019F4823051F404C0843029F457
:10049000923081F481E292E0C6C0923049F420E0CB
:1004A0009A858A89981321E02A87CE010996BBC0D4
:1004B000823049F420E09A858A89981321E02A8BBA
:1004C000CE014196B0C02D843E844F8458886D88FB
:1004D0007E888F88988CEE24FF248701AA24BB2471
:1004E000650140E050E060E070E0E0E0F0E0C10174
:1004F00081709070892BE9F0E60CF71C081D191D1E
:100500009A01AB012A0D3B1D4C1D5D1D80E090E062
:10051000A0E0B0E0E614F7040805190520F481E036
:1005200090E0A0E0B0E0BA01A901480F591F6A1F8E
:100530007B1FAA0CBB1CCC1CDD1C97FE08C081E0F5
:1005400090E0A0E0B0E0A82AB92ACA2ADB2A3196B6
:10055000E032F10549F0660C771C881C991C569412
:10056000479437942794C3CFFA85EA892B893C892D
:100570008B859C85280F391F2E5F3F4F17C0CA01FE
:1005800081709070892B61F016950795F794E79428
:1005900080E090E0A0E0B0E8E82AF92A0A2B1B2BC3
:1005A00076956795579547952F5F3F4F77FDE7CF36
:1005B0000CC0440F551F661F771F17FD4160EE0CDE
:1005C000FF1C001F111F21503040403090E05907A0
:1005D00090E0690790E4790760F32B8F3C8FDB0193
:1005E000CA018F779070A070B07080349105A1051A
:1005F000B10561F447FD0AC0E114F10401051105DC
:1006000029F0405C5F4F6F4F7F4F40781A8EFE1786
:1006100011F081E08A8F4D8F5E8F6F8F78A383E01A
:10062000898FCE0149960E949F05A096E2E10C9425
:10063000A41CA8E1B0E0EFE1F3E00C94901C698306
:100640007A838B839C832D833E834F835887B9E0C5
:10065000EB2EF12CEC0EFD1ECE010196B7010E948F
:1006600074068E010F5E1F4FCE010596B8010E94E1
:1006700074062985223008F47EC03989323010F49E
:10068000B8017CC08A859A8989278A87243011F02D
:10069000223031F4231709F06EC061E272E06EC0BF
:1006A000343039F41D861E861F86188A1C861B86E8
:1006B00004C0323021F484E08987B7015FC02B8504
:1006C0003C858B899C89281B390B3C872B87ED84C3
:1006D000FE840F851889AD88BE88CF88D88CEA142F
:1006E000FB040C051D0540F4EE0CFF1C001F111F40
:1006F000215030403C872B8720E030E040E050E044
:1007000080E090E0A0E0B0E460E070E0EA14FB0478
:100710000C051D0540F0282B392B4A2B5B2BEA18C2
:10072000FB080C091D09B695A79597958795EE0CC2
:10073000FF1C001F111F6F5F7F4F6F31710531F775
:10074000DA01C9018F779070A070B0708034910584
:10075000A105B10561F427FD0AC0E114F10401050A
:10076000110529F0205C3F4F4F4F5F4F20782D87B8
:100770003E874F87588BBE01675F7F4FCB010E943A
:100780009F056896EAE00C94AC1CA8E1B0E0EBECA5
:10079000F3E00C94941C69837A838B839C832D8370
:1007A0003E834F83588789E0E82EF12CEC0EFD1E26
:1007B000CE010196B7010E9474068E010F5E1F4F95
:1007C000CE010596B8010E9474068985823040F0FA
:1007D0008989823028F0C701B8010E94EC0601C067
:1007E00081E06896E6E00C94B01CA8E1B0E0EBEF85
:1007F000F3E00C94941C69837A838B839C832D8310
:100800003E834F83588789E0E82EF12CEC0EFD1EC5
:10081000CE010196B7010E9474068E010F5E1F4F34
:10082000CE010596B8010E9474068985823040F099
:100830008989823028F0C701B8010E94EC0601C006
:100840008FEF6896E6E00C94B01CA8E0B0E0EBE215
:10085000F4E00C94911C9B01AC0183E08983DA01E4
:10086000C9018827B7FD83959927AA27BB27B82EEA
:10087000211531054105510519F482E089833AC0FB
:100880008823A9F0203080E0380780E0480780E81E
:10089000580729F460E070E080E09FEC30C0EE245F
:1008A000FF248701E21AF30A040B150B02C0790139
:1008B0008A018EE1C82ED12CDC82CB82ED82FE82B1
:1008C0000F831887C801B7010E94500501971816B9
:1008D000190684F4082E04C0EE0CFF1C001F111F23
:1008E0000A94D2F7ED82FE820F831887C81AD90ABC
:1008F000DC82CB82BA82CE0101960E949F052896A7
:10090000E9E00C94AD1CACE0B0E0E9E8F4E00C9454
:10091000981C69837A838B839C83CE010196BE01E8
:100920006B5F7F4F0E9474068D81823061F182304F
:1009300050F1843021F48E81882351F12EC02F8113
:10094000388537FD20C06E812F3131051CF06623BC
:10095000F9F023C08EE190E0821B930B29853A8544
:100960004B855C8504C056954795379527958A95A4
:10097000D2F76623B1F050954095309521953F4FC1
:100980004F4F5F4F0EC020E030E040E050E009C024
:100990002FEF3FEF4FEF5FE704C020E030E040E093
:1009A00050E8B901CA012C96E2E00C94B41CA8E00E
:1009B000B0E0EDEDF4E00C94901C7B018C0161152E
:1009C00071058105910519F482E0898360C083E097
:1009D00089838EE1C82ED12CDC82CB82ED82FE820F
:1009E0000F831887C801B7010E945005FC01319799
:1009F000F7FF3BC0222733272E1B3F0B570168010F
:100A0000022E04C0D694C794B794A7940A94D2F740
:100A100040E050E060E070E081E090E0A0E0B0E015
:100A200004C0880F991FAA1FBB1F2A95D2F70197F0
:100A3000A109B1098E219F21A023B1230097A1050F
:100A4000B10521F041E050E060E070E04A295B2907
:100A50006C297D294D835E836F8378878EE190E0DA
:100A60008E1B9F0B9C838B8312C0309781F00E2EC0
:100A700004C0EE0CFF1C001F111F0A94D2F7ED8278
:100A8000FE820F831887CE1ADF0ADC82CB821A829D
:100A9000CE0101960E949F052896EAE00C94AC1CBA
:100AA000EF92FF920F931F937B018C0180E0E81679
:100AB00080E0F80681E0080780E0180788F48FEFEF
:100AC000E816F1040105110531F028F088E090E006
:100AD000A0E0B0E017C080E090E0A0E0B0E012C07D
:100AE00080E0E81680E0F80680E0080781E018075B
:100AF00028F088E190E0A0E0B0E004C080E190E060
:100B0000A0E0B0E020E230E040E050E0281B390BEC
:100B10004A0B5B0B04C016950795F794E7948A95EA
:100B2000D2F7F701E75DFD4F8081281B31094109AC
:100B30005109C9011F910F91FF90EF900895DF9225
:100B4000EF92FF920F931F93FC01E480F5800681E2
:100B50001781D1808081823048F480E090E0A0E16C
:100B6000B0E0E82AF92A0A2B1B2BA5C0843009F42F
:100B70009FC0823021F4EE24FF24870105C0E114D8
:100B8000F1040105110519F4E0E0F0E096C062817E
:100B900073819FEF623879070CF05BC022E83FEF6A
:100BA000261B370B2A3131052CF020E030E040E0E5
:100BB00050E02AC0B801A701022E04C076956795BF
:100BC000579547950A94D2F781E090E0A0E0B0E015
:100BD00004C0880F991FAA1FBB1F2A95D2F701973F
:100BE000A109B1098E219F21A023B1230097A1055E
:100BF000B10521F081E090E0A0E0B0E09A01AB0106
:100C0000282B392B4A2B5B2BDA01C9018F77907087
:100C1000A070B07080349105A105B10539F427FFAB
:100C200009C0205C3F4F4F4F5F4F04C0215C3F4FD6
:100C30004F4F5F4FE0E0F0E02030A0E03A07A0E047
:100C40004A07A0E45A0710F0E1E0F0E079018A01D8
:100C500027C06038710564F5FB01E158FF4FD801EA
:100C6000C7018F779070A070B07080349105A10596
:100C7000B10539F4E7FE0DC080E490E0A0E0B0E0FB
:100C800004C08FE390E0A0E0B0E0E80EF91E0A1F78
:100C90001B1F17FF05C016950795F794E79431962B
:100CA00087E016950795F794E7948A95D1F705C0E4
:100CB000EE24FF248701EFEFF0E06E2F67956627A3
:100CC0006795902F9F77D794DD24D7948E2F8695A4
:100CD000492F462B582F5D29B701CA011F910F914B
:100CE000FF90EF90DF900895FC01DB01408151817E
:100CF0002281622F6F7770E0221F2227221F9381AB
:100D0000892F880F822B282F30E0991F9927991F50
:100D100011969C93119721153105A9F5411551059F
:100D20006105710511F482E037C082E89FEF1396E8
:100D30009C938E9312979A01AB0167E0220F331FA9
:100D4000441F551F6A95D1F783E08C930DC0220F85
:100D5000331F441F551F12968D919C911397019735
:100D600013969C938E931297203080E0380780E092
:100D7000480780E4580758F314962D933D934D93FC
:100D80005C93179708952F3F310579F4411551056C
:100D90006105710519F484E08C93089564FF03C024
:100DA00081E08C9312C01C9210C02F5730401396D4
:100DB0003C932E93129783E08C9387E0440F551F4A
:100DC000661F771F8A95D1F7706414964D935D93D3
:100DD0006D937C93179708951F93DC01FB019C9101
:100DE000923008F447C08081823008F443C09430C8
:100DF00051F411961C91843099F58181682F70E02F
:100E0000611B71093FC0843021F0923031F482308F
:100E1000B9F18181882389F12DC011961C91119718
:100E20008230F1F081811817D9F412962D913C91FE
:100E30001397828193818217930794F028173907BB
:100E4000BCF014968D919D910D90BC91A02D2481A4
:100E5000358146815781281739074A075B0718F4FF
:100E6000112341F00AC082179307A407B50740F485
:100E7000112319F061E070E005C06FEF7FEF02C051
:100E800060E070E0CB011F910895E1E4F0E0808123
:100E9000886080838081816080838081826080839C
:100EA0008081846080830895A89508958CB920E09E
:100EB00030E0EBE2F0E0808186FD06C02F5F3F4F1F
:100EC0008EE420323807B9F70895EBE2F0E0808134
:100ED0008823ECF78CB108951CB8089590936303B0
:100EE000809362030895EF92FF920F931F93CF9325
:100EF000DF93082FEB0110E00F2EF0EAEF2EFFE05A
:100F0000FF2EF02DFE01E10FF11D80810E9456079A
:100F10001F5FC7010197F1F70117A0F7DF91CF918C
:100F20001F910F91FF90EF9008951F920F920FB6AF
:100F30000F9211242F933F934F935F936F937F935F
:100F40008F939F93AF93BF93EF93FF93E0916203CF
:100F5000F09163030995FF91EF91BF91AF919F913C
:100F60008F917F916F915F914F913F912F910F9052
:100F70000FBE0F901F901895EAE2F0E080818F7EFF
:100F800080838081877F8083089588E260E00E946B
:100F9000E40A89E261E00E94E40AEAE2F0E080818A
:100FA0008B7F808386E880BD87E689B980818068F1
:100FB00080838081806180838081886080830895C0
:100FC000882369F4E3E5F0E080818F7B8083808172
:100FD000877F8083E9E5F0E08081816080830895E8
:100FE000882371F5CB01BA0128EE33E040E050E0F0
:100FF0000E940C1C689415F89695879577956795CF
:101000001694D1F7272F382F492F552720933A03CD
:1010100030933B0340933C0350933D03862F66235C
:1010200079F0819582BFDA01C9010196A11DB11D38
:1010300080933A0390933B03A0933C03B0933D030A
:101040000895813089F0813018F0823021F518C080
:10105000E3E5F0E080818160808380818D7F808303
:101060008081846080830895EEE4F0E080818E7F4B
:10107000808380818D7F80838081846080830895D8
:10108000E5E4F0E080818160808380818D7F8083D2
:101090008081846080830895813089F0813018F0E8
:1010A000823021F518C0E3E5F0E080818E7F8083F7
:1010B00080818D7F808380818B7F80830895EEE4A3
:1010C000F0E080818E7F808380818D7F808380812E
:1010D0008B7F80830895E5E4F0E080818E7F8083BC
:1010E00080818D7F808380818B7F80830895EF92C4
:1010F000FF920F931F937A018B01813051F1813060
:1011000020F0823009F057C03FC0CB01BA0120E087
:1011100030E040E050E00E94C503882311F41CBE7B
:101120004AC0C801B70120E030E040E853E40E9423
:101130001F0220E030E048EC52E40E94190320E056
:1011400030E040E85FE30E94C1010E9449006CBFAB
:1011500032C066B577B580E090E00E94D704A80160
:1011600097010E941F0220E030E048EC52E40E9408
:10117000190320E030E040E85FE30E94C1010E94D3
:1011800049007BBD6ABD17C0CB01BA0120E030E049
:1011900040E853E40E941F0220E030E048EC52E4B3
:1011A0000E94190320E030E040E85FE30E94C101A3
:1011B0000E94490063BD1F910F91FF90EF90089529
:1011C000282F30E040E050E064E274EF80E090E0EF
:1011D0000E946D1C37BD26BD08950E942108089508
:1011E0000E944C080895813051F0813018F082300F
:1011F00079F40AC07093690360936803089570934B
:1012000067036093660308957093650360936403B6
:1012100008951F920F920FB60F9211242F933F93B0
:101220004F935F936F937F938F939F93AF93BF93EE
:10123000EF93FF938091430390914403A091450362
:10124000B09146030196A11DB11D80934303909375
:101250004403A0934503B093460320913A03309191
:101260003B0340913C0350913D0382179307A40731
:10127000B50789F4E0916803F091690309958091BD
:101280003E03819582BF1092430310924403109253
:10129000450310924603FF91EF91BF91AF919F914B
:1012A0008F917F916F915F914F913F912F910F900F
:1012B0000FBE0F901F9018958130C9F0813020F03B
:1012C000823009F041C02EC087E161E00E94E40A4B
:1012D000E3E5F0E0808180648083808188608083A2
:1012E00080818F7E808380818062808308958DE2FB
:1012F00061E00E94E40AAFE4B0E08C918E7F8C93B1
:101300008C9182608C93EEE4F0E080818860808331
:101310008081806180838C918F7B8C938C9180689D
:101320008C9308958FE261E00E94E40AE5E4F0E026
:1013300080818064808380818860808380818F7ECB
:10134000808380818062808308958FB920E030E0BF
:1013500040E050E0EEE2F0E08081882364F02F5F0F
:101360003F4F4F4F5F4F203884E838078EE14807E2
:1013700080E0580789F78FB108950F931F930DE20E
:1013800010E0F80180818F7E808389E160E00E9417
:10139000E40A8AE161E00E94E40A88E160E00E94D8
:1013A000E40A8BE160E00E94E40AF8018081806237
:1013B00080838081806480831F910F9108958CE0E9
:1013C00080B9E6E5F0E08081846080830895E6E5F9
:1013D000F0E080818062808380818068808380816A
:1013E0008823ECF7E1E2F0E08081887F8830E1F744
:1013F0000895E6E5F0E080818061808380818068E7
:1014000080830895E6E5F0E08081806280838081BA
:101410008068808380818823ECF7E1E2F0E08081BE
:10142000887F8031E1F70895880F83B9E6E5F0E021
:1014300080818068808380818823ECF7E1E2F0E09E
:101440008081887F8831E1F70895880F816083B9B2
:10145000E6E5F0E080818F7D8083808180688083F5
:1014600080818823ECF7E1E2F0E08081887F80349E
:10147000E1F7089583B9E6E5F0E080818F7D808310
:1014800080818068808380818823ECF7E1E2F0E04E
:101490008081887F8832E1F70895E6E5F0E0808179
:1014A0008F7D808380818064808380818068808359
:1014B00080818823ECF7E1E2F0E08081887F80354D
:1014C000E1F783B10895E6E5F0E010828081846061
:1014D00080830895EFE5F0E080818068808308953F
:1014E000EFE5F0E080818F7780830895813099F077
:1014F000813018F0823039F51CC0E5E5F0E08081DC
:1015000081608083808182608083EBE5F0E0808170
:10151000806480830895E5E5F0E080818B7F80839F
:10152000808188608083EBE5F0E080818068808343
:101530000895E4E5F0E0808180648083EBE5F0E0ED
:10154000808180628083089590936B0380936A0307
:1015500008951F920F920FB60F9211242F933F936D
:101560004F935F936F937F938F939F93AF93BF93AB
:10157000EF93FF93E0916A03F0916B030995FF915C
:10158000EF91BF91AF919F918F917F916F915F91FB
:101590004F913F912F910F900FBE0F901F90189574
:1015A0001F920F920FB60F9211240F900FBE0F9043
:1015B0001F9018951F920F920FB60F9211240F9043
:1015C0000FBE0F901F901895282F362F6AE00E94AB
:1015D0002B1C492F822F0E942B1C332321F03130EA
:1015E00009F086C046C08230D1F0833020F48130CB
:1015F00009F07EC006C0833001F1843009F078C064
:101600002AC0EAE3F0E0208181E090E002C0880F88
:10161000991F4A95E2F78095822380830895E7E336
:10162000F0E0208181E090E002C0880F991F4A9588
:10163000E2F78095822380830895E4E3F0E020813F
:1016400081E090E002C0880F991F4A95E2F78095EB
:10165000822380830895E1E3F0E0208181E090E03F
:1016600002C0880F991F4A95E2F7809582238083F4
:1016700008958230B9F0833018F48130C9F505C07F
:101680008330E9F08430A1F527C0EAE3F0E020815F
:1016900081E090E002C0880F991F4A95E2F7282B5D
:1016A00020830895E7E3F0E0208181E090E002C02C
:1016B000880F991F4A95E2F7282B20830895E4E3C9
:1016C000F0E0208181E090E002C0880F991F4A95E8
:1016D000E2F7282B20830895E1E3F0E0208181E008
:1016E00090E002C0880F991F4A95E2F7282B2083CB
:1016F0000895282F362F6AE00E942B1C492F822F35
:101700000E942B1C332321F0313009F086C046C0E3
:101710008230D1F0833020F4813009F07EC006C0E1
:10172000833001F1843009F078C02AC0EBE3F0E0A7
:10173000208181E090E002C0880F991F4A95E2F76E
:101740008095822380830895E8E3F0E0208181E0A2
:1017500090E002C0880F991F4A95E2F78095822396
:1017600080830895E5E3F0E0208181E090E002C00D
:10177000880F991F4A95E2F7809582238083089508
:10178000E2E3F0E0208181E090E002C0880F991F41
:101790004A95E2F780958223808308958230B9F0DC
:1017A000833018F48130C9F505C08330E9F0843006
:1017B000A1F527C0EBE3F0E0208181E090E002C0DA
:1017C000880F991F4A95E2F7282B20830895E8E3B4
:1017D000F0E0208181E090E002C0880F991F4A95D7
:1017E000E2F7282B20830895E5E3F0E0208181E0F3
:1017F00090E002C0880F991F4A95E2F7282B2083BA
:101800000895E2E3F0E0208181E090E002C0880FDB
:10181000991F4A95E2F7282B20830895282F6AE024
:101820000E942B1C392F822F0E942B1C8230B9F072
:10183000833018F48130C9F505C08330E9F0843075
:10184000A1F527C0EBE3F0E0208181E090E002C049
:10185000880F991F3A95E2F7282720830895E8E337
:10186000F0E0208181E090E002C0880F991F3A9556
:10187000E2F7282720830895E5E3F0E0208181E066
:1018800090E002C0880F991F3A95E2F7282720833D
:101890000895E2E3F0E0208181E090E002C0880F4B
:1018A000991F3A95E2F7282720830895282F6AE0A8
:1018B0000E942B1C392F822F0E942B1C8230A1F0FA
:1018C000833018F4813029F406C08330B1F08430BD
:1018D000E9F080E0089589B390E002C0959587957E
:1018E0003A95E2F78170089586B390E002C095952D
:1018F00087953A95E2F78170089583B390E002C02E
:10190000959587953A95E2F78170089580B390E0B8
:1019100002C0959587953A95E2F781700895282F32
:10192000362F6AE00E942B1C492F822F0E942B1C0D
:10193000332321F0313009F086C046C08230D1F027
:10194000833020F4813009F07EC006C0833001F17D
:10195000843009F078C02AC0EBE3F0E0208181E018
:1019600090E002C0880F991F4A95E2F78095822384
:1019700080830895E8E3F0E0208181E090E002C0F8
:10198000880F991F4A95E2F78095822380830895F6
:10199000E5E3F0E0208181E090E002C0880F991F2C
:1019A0004A95E2F78095822380830895E2E3F0E090
:1019B000208181E090E002C0880F991F4A95E2F7EC
:1019C00080958223808308958230B9F0833018F4A3
:1019D0008130C9F505C08330E9F08430A1F527C016
:1019E000EBE3F0E0208181E090E002C0880F991FD6
:1019F0004A95E2F7282B20830895E8E3F0E0208160
:101A000081E090E002C0880F991F4A95E2F7282BE9
:101A100020830895E5E3F0E0208181E090E002C0BA
:101A2000880F991F4A95E2F7282B20830895E2E357
:101A3000F0E0208181E090E002C0880F991F4A9574
:101A4000E2F7282B20830895E7E2F0E080818F778A
:101A5000808380818064808380818F7D8083E6E2C3
:101A6000F0E08081846080838081826080838081D7
:101A700081608083808180628083808180688083B0
:101A800008958130D1F0813030F0823041F18330DF
:101A900009F048C036C0E7E2F0E080818F7E8083A5
:101AA0008081877F808380818B7F808380818D7F11
:101AB000808380818E7F808335C0E7E2F0E0808183
:101AC0008F7E80838081877F808380818B7F8083EE
:101AD00080818D7F808380818160808323C0E7E265
:101AE000F0E080818F7E80838081877F808380810A
:101AF0008B7F808380818260808380818E7F8083E2
:101B000011C0E7E2F0E080818F7E80838081877F53
:101B1000808380818B7F80838081826080838081CD
:101B200081608083E6E2F0E080818064808320E051
:101B300030E040E050E0808184FD0CC02F5F3F4FDB
:101B40004F4F5F4F20308DE2380781E3480781E037
:101B5000580789F724B135B1822F932F089581E07A
:101B60000E94F008089581E00E94ED08089590E039
:101B7000AA2797FDA095BA2FBC01CD010E9425048C
:101B800020E030E040EA50E40E941F0220E030E014
:101B900044E353E40E94190320E030E040EA50E4BB
:101BA0000E94F201AB01BC0181E00E947708089518
:101BB00081E00E945C0982E30E94E008089584307D
:101BC00009F463C0853050F4813061F18130C8F090
:101BD0008230C9F1833009F0BDC046C0873009F4B6
:101BE00087C0883038F4853009F460C0863009F049
:101BF000B1C06DC0883009F48CC0893009F0AAC02A
:101C000099C08EE060E00E94790B8FE060E00E9456
:101C1000790B80E160E00E94790B81E160E00E9435
:101C2000790B08958EE061E00E94790B8FE060E00F
:101C30000E94790B80E160E00E94790B81E160E015
:101C40000E94790B08958EE060E00E94790B8FE08E
:101C500061E00E94790B80E160E00E94790B81E1F4
:101C600060E00E94790B08958EE061E00E94790B9C
:101C70008FE061E00E94790B80E160E00E94790BC7
:101C800081E160E00E94790B08958EE060E00E949F
:101C9000790B8FE060E00E94790B80E161E00E94A7
:101CA000790B81E160E00E94790B08958EE061E09C
:101CB0000E94790B8FE060E00E94790B80E161E087
:101CC0000E94790B81E160E00E94790B08958EE01B
:101CD00060E00E94790B8FE061E00E94790B80E167
:101CE00061E00E94790B81E160E00E94790B089528
:101CF0008EE061E00E94790B8FE061E00E94790B39
:101D000080E161E00E94790B81E160E00E94790B43
:101D100008958EE060E00E94790B8FE060E00E9401
:101D2000790B80E160E00E94790B81E161E00E9423
:101D3000790B08958EE061E00E94790B8FE060E0FE
:101D40000E94790B80E160E00E94790B81E161E003
:101D50000E94790B0895EF92FF920F931F93CF93F8
:101D6000DF93282F6AE00E942B1CE92E822F0E940D
:101D70002B1CF82EC0E0D0E000EA1FE08F2D0E945F
:101D8000DF0D86E161E00E94790BC8010197F1F750
:101D900086E160E00E94790B8E2D0E94DF0D85E1C7
:101DA00061E00E94790BC8010197F1F785E160E0DD
:101DB0000E94790B219681E0C43FD807F9F6DF91A4
:101DC000CF911F910F91FF90EF9008958EE061E009
:101DD0000E94E40A8FE061E00E94E40A80E161E091
:101DE0000E94E40A81E161E00E94E40A85E161E089
:101DF0000E94E40A86E161E00E94E40A08958130CD
:101E000011F1813020F0823009F051C036C084E1F8
:101E10000E94560C813009F04AC024E135E040E9C7
:101E200051E0CA010197F1F721503040D1F784E128
:101E30000E94560C813009F03AC084E10E94560C91
:101E40008130D9F336C08EE20E94560C813079F58C
:101E500024E135E040E951E0CA010197F1F7215052
:101E60003040D1F78EE20E94560C813001F58EE2AF
:101E70000E94560C8130D9F31CC08AE20E94560C95
:101E80008130A9F424E135E040E951E0CA0101972D
:101E9000F1F721503040D1F78AE20E94560C813090
:101EA00031F48AE20E94560C8130D9F302C080E0FE
:101EB000089581E00895813051F0813018F082302A
:101EC00079F40AC084E160E00E94E40A089584E1A4
:101ED00060E00E94E40A089584E160E00E94E40A60
:101EE000089581E00E94410DA0E0B0E0BC01CD0169
:101EF00024EF31E040E050E00E940C1C2FEF33E073
:101F000040E050E00E944B1C822F932F08950E94C6
:101F1000240D08958230B1F0833028F4882351F0E5
:101F20008130F9F40BC08430A9F0843078F085302A
:101F3000C1F414C080E20E940E0C089585E20E9454
:101F40000E0C08958BE20E940E0C08958AE20E9406
:101F50000E0C08958EE20E940E0C089584E10E94FA
:101F60000E0C08958230C1F0833028F4882351F09C
:101F7000813029F50CC08430C9F0843090F0853070
:101F8000F1F419C080E260E00E94790B089585E2C7
:101F900060E00E94790B08958BE260E00E94790B6B
:101FA00008958AE260E00E94790B08958EE260E075
:101FB0000E94790B089584E160E00E94790B0895F6
:101FC0008230C1F0833028F4882351F0813029F524
:101FD0000CC08430C9F0843090F08530F1F419C021
:101FE00080E261E00E94790B089585E261E00E9441
:101FF000790B08958BE261E00E94790B08958AE2E3
:1020000061E00E94790B08958EE261E00E94790BF5
:10201000089584E161E00E94790B08958230C1F057
:10202000833028F4882351F0813029F50CC08430A6
:10203000C9F0843090F08530F1F419C080E261E09D
:102040000E94E40A089585E261E00E94E40A08958E
:102050008BE261E00E94E40A08958AE261E00E9456
:10206000E40A08958EE261E00E94E40A089584E1A2
:1020700061E00E94E40A089590936D0380936C03DD
:1020800008951F93182F682F61708EE00E94790BBE
:10209000612F669561708FE00E94790B612F6695C4
:1020A0006695617080E10E94790B169516951695DC
:1020B000117081E1612F0E94790B1F910895FF92A9
:1020C0000F931F93F82E85E160E00E94790B8F2D0E
:1020D00082958F700E94411087E161E00E94790B28
:1020E00000EA1FE0C8010197F1F787E160E00E9474
:1020F000790BC8010197F1F78F2D0E94411087E1FC
:1021000061E00E94790BC8010197F1F787E160E077
:102110000E94790BC8010197F1F71F910F91FF9071
:10212000089581E00E945F100895DF93CF9300D05F
:10213000CDB7DEB790E8998390EC9A83FE01E80F63
:10214000F11D8181860F0E945F100F900F90CF913B
:10215000DF910895FF920F931F93F82E85E161E0C0
:102160000E94790B8F2D82958F700E94411087E11C
:1021700061E00E94790B00EA1FE0C8010197F1F7C6
:1021800087E160E00E94790BC8010197F1F78F2D7C
:102190000E94411087E161E00E94790BC80101971C
:1021A000F1F787E160E00E94790BC8010197F1F730
:1021B0001F910F91FF900895AF92BF92CF92DF923F
:1021C000EF92FF920F93DF93CF93CDB7DEB7629775
:1021D0000FB6F894DEBF0FBECDBF6B017C01992313
:1021E0005CF4F094E094D094C094C11CD11CE11C28
:1021F000F11C8DE20E94AA100FEF5E010894A11C51
:10220000B11C0F5F802F992787FD90959501280FAE
:10221000391F3A8B298BC701B6012AE030E040E034
:1022200050E00E946D1CE989FA896083C701B601FC
:102230002AE030E040E050E00E946D1C822F932F96
:10224000A42FB52F6C017D01C114D104E104F10468
:10225000C1F600238CF07E010894E11CF11C802F54
:10226000992787FD9095F701E80FF91F8081805D20
:102270000E94AA1001509AF762960FB6F894DEBF3A
:102280000FBECDBFCF91DF910F91FF90EF90DF9008
:10229000CF90BF90AF9008951F93CF93DF93EC0141
:1022A0008881882351F010E00E94AA101F5FFE0170
:1022B000E10FF11D80818823B9F7DF91CF911F9144
:1022C00008950E94911080E060E00E94951080E6E1
:1022D00090E00E944C1120E137E240E951E0CA0150
:1022E0000197F1F721503040D1F70895CF93DF9354
:1022F000EC0180915B038150823000F50E949110C7
:1023000080E060E00E9495108FE690E00E944C1102
:10231000CE010E944C1180E06CE00E94951088E78D
:1023200090E00E944C1120E335E740E951E0CA01FA
:102330000197F1F721503040D1F714C00E9491105D
:1023400080E060E00E9495108DE790E00E944C11C3
:1023500020E335E740E951E0CA010197F1F7215048
:102360003040D1F7DF91CF9108952F923F924F9255
:102370005F926F927F928F929F92AF92BF92CF9215
:10238000DF92EF92FF920F931F93CF93DF930F2E65
:10239000FCE86F2EF0E07F2EF02D0F2EFDE9CF2E02
:1023A000F0E0DF2EF02D0F2EFEEA4F2EF0E05F2E34
:1023B000F02DCFEBD0E00F2EF0ED8F2EF0E09F2E22
:1023C000F02D0F2EFDEDAF2EF0E0BF2EF02D0F2ED5
:1023D000F5EE2F2EF0E03F2EF02D0E94911080910F
:1023E0005B03813059F0813028F0823059F083301E
:1023F00081F40CC0C3010E944C110BC0C6010E94A5
:102400004C1107C0C6010E944C1103C0C2010E94BA
:102410004C1181E060E00E949510CE010E944C11A9
:102420008091570390915803A0915903B0915A039A
:102430000F2EF5E0EF2EF0E0FF2EF0E00F2FF0E092
:102440001F2FF02DE80EF91E0A1F1B1F08C0E09178
:102450006C03F0916D030995882309F0A1C0809168
:10246000570390915803A0915903B0915A03E8166D
:10247000F9060A071B0758F70E94911080E060E0F8
:102480000E949510C4010E944C1181E060E00E94FE
:102490009510C5010E944C1180915B03882319F0AF
:1024A000833081F408C081E068E00E949510C1018A
:1024B0000E944C1107C081E069E00E949510C101A3
:1024C0000E944C118091570390915803A091590399
:1024D000B0915A030F2EF5E0EF2EF0E0FF2EF0E062
:1024E0000F2FF0E01F2FF02DE80EF91E0A1F1B1F03
:1024F00008C0E0916C03F0916D030995882309F001
:102500004FC08091570390915803A0915903B09107
:102510005A03E816F9060A071B0758F780915B0370
:10252000882309F05ACF80E060E00E9495108DEE7C
:1025300090E00E944C1181E060E00E9495108EEFC7
:1025400090E00E944C118091570390915803A09104
:102550005903B0915A030F2EF5E0EF2EF0E0FF2E55
:10256000F0E00F2FF0E01F2FF02DE80EF91E0A1FEC
:102570001B1F07C0E0916C03F0916D030995882340
:1025800079F48091570390915803A0915903B09129
:102590005A03E816F9060A071B0708F41ECFEACF0C
:1025A000DF91CF911F910F91FF90EF90DF90CF902F
:1025B000BF90AF909F908F907F906F905F904F9063
:1025C0003F902F9008958EE061E00E94E40A8FE032
:1025D00061E00E94E40A80E161E00E94E40A81E196
:1025E00061E00E94E40A85E161E00E94E40A87E17B
:1025F00061E00E94E40A86E161E00E94E40A86E16B
:1026000060E00E94790B83E30E945F1082E30E94E6
:102610005F1088E20E945F108CE00E945F1081E0F2
:102620000E945F1082E00E945F10089590936F03F4
:1026300080936E0308956F927F928F929F92AF92D4
:10264000BF92CF92DF92EF92FF920F931F93DF938F
:10265000CF93CDB7DEB760970FB6F894DEBF0FBE4D
:10266000CDBFDE011196E9E2F3E080E101900D9229
:102670008150E1F79924CC24DD240F2EF8E18F2E30
:10268000F02D00E911E080EB94E0B82EA92E3E0178
:102690000894611C711C0F2EF1E2EF2EF02DEC0C52
:1026A0008E2D60E00E94790BF82C8F2D0E94560C25
:1026B0008823C9F48B2D9A2DF8013197F1F70197F2
:1026C000D9F78F2D0E94560C882369F4C601880F14
:1026D000991F880F991FF301E80FF91FEF0DF11DE6
:1026E0007897908004C0F3948CE1F816F1F68E2D63
:1026F00061E00E94790B0894C11CD11C84E0C816CB
:10270000D10449F6892D60960FB6F894DEBF0FBE4E
:10271000CDBFCF91DF911F910F91FF90EF90DF9090
:10272000CF90BF90AF909F908F907F906F900895C3
:102730000F931F93CF93DF9308E413E0F8011192F6
:102740001082F801128213821482158216828293FB
:102750008F01E0916E03F0916F0380E060E040E153
:1027600051E00995E0916E03F0916F0380E069E01C
:10277000A801099520E137E240E951E0CA0101973B
:10278000F1F721503040D1F7C8E4D3E00E941B1389
:1027900088838823D9F3E0916E03F0916F0380E082
:1027A0006AE048E453E0099528E833E140E951E064
:1027B000CA010197F1F721503040D1F7C9E4D3E0C5
:1027C0000E941B1388838823D9F3E0916E03F09154
:1027D0006F0380E06BE049E453E0099528E833E1BA
:1027E00040E951E0CA010197F1F721503040D1F79B
:1027F000CAE4D3E00E941B1388838823D9F3E091B5
:102800006E03F0916F0380E06CE04AE453E00995B9
:1028100028E833E140E951E0CA010197F1F721507E
:102820003040D1F7E0916E03F0916F0381E060E0FA
:102830004AE151E00995CBE4D3E00E941B13888361
:102840008823D9F3E0916E03F0916F0381E069E092
:102850004BE453E0099528E833E140E951E0CA012F
:102860000197F1F721503040D1F7CCE4D3E00E943A
:102870001B1388838823D9F3E0916E03F0916F03D3
:1028800081E06AE04CE453E0099528E833E140E94F
:1028900051E0CA010197F1F721503040D1F7CDE462
:1028A000D3E00E941B1388838823D9F3E0916E0341
:1028B000F0916F0381E06BE04DE453E0099528E867
:1028C00033E140E951E0CA010197F1F7215030406E
:1028D000D1F7CEE4D3E00E941B1388838823D9F379
:1028E000E0916E03F0916F0381E06CE04EE453E001
:1028F000099528E833E140E951E0CA010197F1F771
:1029000021503040D1F787E493E0DF91CF911F91C0
:102910000F91089581E261E00E94E40A82E261E0A1
:102920000E94E40A83E261E00E94E40A84E261E03A
:102930000E94E40A88E160E00E94E40A89E160E024
:102940000E94E40A8AE160E00E94E40A8BE160E010
:102950000E94E40A88E161E00E948F0C89E161E055
:102960000E948F0C8AE161E00E948F0C8BE161E094
:102970000E948F0C81E261E00E94790B82E261E0AB
:102980000E94790B83E261E00E94790B84E261E0AE
:102990000E94790B08958CE260E00E94790B089503
:1029A0008CE261E00E94790B0895882319F0813050
:1029B00091F409C083E260E00E94790B84E261E057
:1029C0000E94790B089583E261E00E94790B84E212
:1029D00060E00E94790B08958CE261E00E94E40AB5
:1029E000089581E00E94F008089581E00E94ED08BA
:1029F00008950E94D704AB01BC0181E00E947708D2
:102A0000089583E261E00E94E40A84E261E00E94AA
:102A1000E40A81E00E945C0908958DE061E00E9473
:102A2000790B28E532E040E951E0CA010197F1F75E
:102A300021503040D1F78DE060E00E94790B08957D
:102A40008DE060E00E94790B08958DE061E00E94C6
:102A5000790B0895CF92DF92EF92FF920F931F931D
:102A6000CF93DF930F2EF0E3EF2EF5E7FF2EF02D3F
:102A7000C0E9D1E000E117E20F2EF0E2CF2EFEE434
:102A8000DF2EF02D0E9425159701CE010197F1F759
:102A900021503040D1F70E9420159801CE010197B6
:102AA000F1F721503040D1F70E9425159601CE0153
:102AB0000197F1F721503040D1F70E94201598017D
:102AC000CE010197F1F721503040D1F70E94251532
:102AD0009801CE010197F1F721503040D1F70E94C3
:102AE00020159801CE010197F1F721503040D1F720
:102AF000C9CF8DE061E00E94E40A08950F931F930F
:102B0000CF93DF93182F062F0E94E7091065812FBE
:102B10000E94140A802F0E943A0A0E94020A812F02
:102B20000E94250ACFE4D3E007E513E00E944D0A96
:102B30008993C017D107D1F70E94F9098FE493E078
:102B4000DF91CF911F910F9108950F931F93CF9312
:102B5000DF938C0180E060E00E947E15EC010E9412
:102B6000630A40E020E030E0F801E20FF31FDE01ED
:102B7000A20FB31F90818C91981709F44F5F2F5FBC
:102B80003F4F2830310581F7483011F481E000C013
:102B9000DF91CF911F910F9108950F931F93182FDD
:102BA000062F0E94E7091065812F0E94140A802FCA
:102BB0000E943A0A0E94020A812F0E94250A0E945E
:102BC0004D0A182F0E94F909812F1F910F91089526
:102BD000CF92DF92FF920F931F93CF93DF938C01DD
:102BE0000F2EF9E0FF2EF02DCC24DD240E94630A85
:102BF00080E06F2D0E947E15EC010E94630A40E088
:102C00009601F801E20FF31FDE01A20FB31F9081BE
:102C10008C91981709F44F5F2F5F3F4F2830310593
:102C200081F7483031F46F2D615080E00E94CD155E
:102C30000EC06F2D615080E00E94CD158F3F21F4B2
:102C40000E94630A80E003C089E0F80ECFCFDF91D5
:102C5000CF911F910F91FF90DF90CF900895FF9239
:102C60000F931F93182F062FF42E0E94E709812F30
:102C700080650E94140A802F0E943A0A8F2D0E94BC
:102C80003A0A0E94F9091F910F91FF900895CF927F
:102C9000DF92FF920F931F93CF93DF938C010F2E40
:102CA000F9E0FF2EF02DCC24DD240E94630A80E0A1
:102CB0006F2D0E947E15EC010E94630A40E0960190
:102CC000F801E20FF31FDE01A20FB31F90818C9178
:102CD000981709F44F5F2F5F3F4F2430310581F77C
:102CE000443069F41F2D11500F2D085F80E0612FD3
:102CF00040E00E942F161F5F1017C1F70EC06F2D06
:102D0000615080E00E94CD158F3F21F40E94630A3C
:102D100080E004C089E0F80EC8CF81E0DF91CF9158
:102D20001F910F91FF90DF90CF900895CF92DF9287
:102D3000EF92FF920F931F93CF93DF93182F062FDD
:102D4000D72EEE246894E3F80E94630A80E06E2D8B
:102D50000E94CD158F3F89F580E06E2D412F0E9496
:102D60002F1620E137E240E951E0CA010197F1F75F
:102D700021503040D1F7FE2CF394202F3D2D8901B6
:102D80000F2EF0E1CF2EF7E2DF2EF02DC0E9D1E0DB
:102D900089E0E80E80E06F2DF80140810E942F1637
:102DA000F3949601CE010197F1F721503040D1F70D
:102DB0000F5F1F4FFE1471F705C00E94630AF9E010
:102DC000EF0EC2CFDF91CF911F910F91FF90EF9047
:102DD000DF90CF9008950E94DF0920E137E240E9BB
:102DE00051E0CA010197F1F721503040D1F7089521
:102DF0008091570390915803A0915903B0915A03C1
:102E00000196A11DB11D8093570390935803A09381
:102E10005903B0935A0380916003813051F40E94AA
:102E2000410D8050924018F00E94D01408950E94E5
:102E3000CB140895CF93DF93EA01813059F46930C0
:102E400048F00E94951085E291E00E944C110E948A
:102E50000D1507C00E949510CE010E944C110E94D2
:102E60000D15DF91CF91089580E00E94410D69E03A
:102E700070E00E94371C80E090E00E94D704AB0114
:102E8000BC0182E00E9477080E941B1308956F9294
:102E90007F928F929F92AF92BF92CF92DF92EF92EA
:102EA000FF921F93DF93CF93CDB7DEB728970FB66E
:102EB000F894DEBF0FBECDBF8CB1809361030E943A
:102EC0000D1580915B03813009F413C1813038F016
:102ED000823009F416C1833009F052C3AAC180912F
:102EE0006103803321F0813309F0FBC089C00E9467
:102EF000911080E060E00E94951087E291E00E94CE
:102F00004C118DE161E371E00E94730710E06E01E6
:102F10000894C11CD11C0F2EFFE48F2EF1E09F2ED0
:102F2000F02D0F2EFDE6AF2EF1E0BF2EF02D0F2E6F
:102F3000F0EAEF2EFFE0FF2EF02D0E946507F6016C
:102F4000E10FF11D80838823C9F0133018F40E942B
:102F5000AA1013C0133071F40E94AA108DE1B401BD
:102F60000E94730781E060E00E949510C5010E94F5
:102F70004C1103C08AE20E94AA101F5FC70101978B
:102F8000F1F71830D0F220E137E240E951E0CA0110
:102F90000197F1F721503040D1F7CE0101960E9400
:102FA000A5158130D1F483E080935B030E949110DA
:102FB00080E060E00E94951088E791E00E944C114B
:102FC00020E23EE440E951E0CA010197F1F72150C7
:102FD0003040D1F70E949110D3C280915C038230BF
:102FE00020F00E94BC070E942A1580915B03882371
:102FF00009F0C6C280915C038F5F80935C03C0C2FE
:103000000E94911080E060E00E94951087E291E0BC
:103010000E944C118DE161E371E00E94730710E0A2
:103020006E010894C11CD11C0F2EFFE48F2EF1E01D
:103030009F2EF02D0F2EFDE6AF2EF1E0BF2EF02DCE
:103040000F2EF0EAEF2EFFE0FF2EF02D0E94650715
:10305000F601E10FF11D80838823C9F0133018F4C5
:103060000E94AA1013C0133071F40E94AA108DE1BF
:10307000B4010E94730781E060E00E949510C501D1
:103080000E944C1103C08AE20E94AA101F5FC70170
:103090000197F1F71830D0F2CE0101960E94E815A1
:1030A000823061F480935B038CE065E871E00E94FC
:1030B0007307CE0101960E94761162C280915C0373
:1030C000823020F00E94BC070E942A1580915B0389
:1030D000882309F055C280915C038F5F80935C0365
:1030E0004FC280E162E971E00E9473070E946111A2
:1030F00047C280E162E971E00E9473070E9461119A
:103100003FC280916103863309F460C0873378F44D
:103110008133D1F1823320F4803309F082C01AC0A8
:10312000843309F44BC0853309F07BC04BC089332D
:1031300009F458C08A3338F4873309F44BC0883314
:1031400009F06FC04BC0813409F45DC0863409F0CA
:1031500068C064C08AE163EA71E00E9473070E945C
:10316000911080E060E00E9495108EEB91E00E944B
:103170004C1120E137E240E951E0CA010197F1F733
:1031800021503040D1F7FCC18AE163EA71E00E942E
:1031900073070E94911080E060E00E9495108EEB12
:1031A00091E00E944C1120E137E240E951E0CA0170
:1031B0000197F1F721503040D1F7E2C181E00E9440
:1031C0008A0FDEC182E00E948A0FDAC183E00E948A
:1031D0008A0FD6C184E00E948A0FD2C185E00E9486
:1031E0008A0FCEC180915F03882339F482E00E9468
:1031F000ED0881E080935F03C3C182E00E94F00884
:1032000010925F03BDC180916003882321F481E0A7
:1032100080936003B5C110926003B2C110925B034A
:10322000AFC180E162E971E00E9473070E94611101
:10323000A7C180916103873309F426C18833B0F4B4
:10324000833309F4BCC0843350F4813309F444C09F
:10325000823308F05BC0803309F092C123C085330C
:1032600009F40AC1863308F00BC102C1823409F4A3
:103270002FC1833450F4893309F40EC1893308F423
:1032800007C1813409F07CC118C1843409F442C1FA
:10329000843408F432C1853409F46BC1863409F0F2
:1032A0006FC16CC18AE163EA71E00E9473070E94FA
:1032B000911080E060E00E9495108EEB91E00E94FA
:1032C0004C1120E137E240E951E0CA010197F1F7E2
:1032D00021503040D1F754C180E163EA71E00E948F
:1032E00073070E94911080E060E00E9495108EEBC1
:1032F00091E00E944C1120E137E240E951E0CA011F
:103300000197F1F721503040D1F73AC10E94911056
:1033100080E060E00E94951087E291E00E944C11ED
:103320008CE16EEC71E00E94730710E07E0108945E
:10333000E11CF11C0F2EF5E2AF2EF1E0BF2EF02DB7
:103340000F2EFBEE8F2EF1E09F2EF02D0F2EFDE6BF
:103350006F2EF1E07F2EF02D0F2EF0EACF2EFFE042
:10336000DF2EF02D0E946507F701E10FF11D80832C
:103370008823C9F0133018F40E94AA1013C0133028
:1033800071F40E94AA108CE1B4010E94730781E0DD
:1033900060E00E949510C3010E944C1103C08A2D69
:1033A0000E94AA101F5FC6010197F1F71830D0F2F2
:1033B00082E0BE016F5F7F4F0E949616E1C00E94BF
:1033C000911080E060E00E94951087E291E00E94F9
:1033D0004C118CE16EEC71E00E94730710E07E01ED
:1033E0000894E11CF11C0F2EF5E2AF2EF1E0BF2E88
:1033F000F02D0F2EFBEE8F2EF1E09F2EF02D0F2ED5
:10340000FDE66F2EF1E07F2EF02D0F2EF0EACF2E8D
:10341000FFE0DF2EF02D0E946507F701E10FF11D9F
:1034200080838823C9F0133018F40E94AA1013C0B7
:10343000133071F40E94AA108CE1B4010E9473074A
:1034400081E060E00E949510C3010E944C1103C00E
:103450008A2D0E94AA101F5FC6010197F1F718304C
:10346000D0F281E0BE016F5F7F4F0E94961688C048
:1034700081E00E948A0F84C082E00E948A0F80C08F
:1034800083E00E948A0F7CC084E00E948A0F78C08B
:1034900085E00E948A0F74C080915F03882339F40D
:1034A00082E00E94ED0881E080935F0369C082E0C2
:1034B0000E94F00810925F0363C08091600388232C
:1034C00021F481E0809360035BC01092600358C0D8
:1034D00080915E03882349F484EB0E94B70D0E941B
:1034E000B30D81E080935E034BC080E00E94B70D76
:1034F0000E94B30D10925E0343C080915D03882348
:1035000021F481E080935D033BC08130C9F51092C6
:103510005D0336C00E94911080E060E00E9495102B
:1035200087E291E00E944C1188E168E072E00E941D
:10353000730710E07E010894E11CF11C0F2EF0EAE5
:10354000CF2EFFE0DF2EF02D0E946507F701E10F7F
:10355000F11D8083882319F00E94AA101F5FC60105
:103560000197F1F7143080F3CE0101960E944716BF
:1035700007C00E94BC070E942A1502C010925B037C
:1035800028960FB6F894DEBF0FBECDBFCF91DF9166
:103590001F91FF90EF90DF90CF90BF90AF909F90E2
:1035A0008F907F906F900895FF920F931F930E94CA
:1035B000EB160E946A0A80E00E94E0070E948A14CB
:1035C0000E94C5070E94E31281E00E940E1082E073
:1035D0000E940E1083E00E940E1084E00E940E10E4
:1035E00085E00E940E100E94240D0E94D80D81E0FB
:1035F0000E945C0982E00E945C0984E397E10E94DA
:103600003C1080E048EE53E060E070E00E94F0077C
:1036100080E00E94210880E068EF76E10E94F308D4
:1036200087E497E10E946E078AE197E10E941613F2
:103630000E94EC14FF24F394E0C00E94B511082FFF
:103640000E94911080915B038130F9F0813038F055
:10365000823009F461C0833009F0CFC060C0802F90
:103660000E9498138C010E94E81580935B03C801A7
:103670000E94761180915B03882309F0BEC080917F
:103680005C038F5F80935C03B8C00333E1F00433C5
:1036900040F4013381F0023390F4003309F0ADC0FF
:1036A00038C00533C1F0053390F00633C1F007335D
:1036B00009F0A3C024C08F2D0E948A0F9EC082E013
:1036C0000E948A0F9AC083E00E948A0F96C084E00D
:1036D0000E948A0F92C085E00E948A0F8EC080915E
:1036E0005F03882331F482E00E94ED08F0925F03CB
:1036F00084C082E00E94F00810925F037EC0809137
:103700006003882319F4F092600377C0109260037D
:1037100074C010925B0371C00E9461116EC00023DF
:1037200009F46BC080915D03882309F464C0813083
:1037300009F063C0043331F1053370F40133B1F0A3
:10374000023320F4003309F058C052C0023391F024
:10375000033309F052C012C00633E1F00633B0F073
:10376000073341F1083309F048C02EC08F2D0E9465
:103770008A0F43C082E00E948A0F3FC083E00E940C
:103780008A0F3BC084E00E948A0F37C085E00E9408
:103790008A0F33C080915F03882331F482E00E9456
:1037A000ED08F0925F0329C082E00E94F0081092B9
:1037B0005F0323C080916003882319F4F0926003B3
:1037C0001CC01092600319C080915E03882341F4ED
:1037D00084EB0E94B70D0E94B30DF0925E030DC002
:1037E00080E00E94B70D0E94B30D10925E0305C0E9
:1037F00010925B0302C00E94611180915C038330D0
:1038000008F41BCF0E94BC070E942A1580E090E0BC
:103810001F910F91FF900895629FD001739FF00157
:10382000829FE00DF11D649FE00DF11D929FF00D50
:10383000839FF00D749FF00D659FF00D9927729F87
:10384000B00DE11DF91F639FB00DE11DF91FBD0112
:10385000CF0111240895991B79E004C0991F961790
:1038600008F0961B881F7A95C9F780950895AA1BC2
:10387000BB1B51E107C0AA1FBB1FA617B70710F05B
:10388000A61BB70B881F991F5A95A9F7809590958D
:10389000BC01CD010895A1E21A2EAA1BBB1BFD019C
:1038A0000DC0AA1FBB1FEE1FFF1FA217B307E4071F
:1038B000F50720F0A21BB30BE40BF50B661F771F77
:1038C000881F991F1A9469F7609570958095909557
:1038D0009B01AC01BD01CF01089597FB092E052680
:1038E0000ED057FD04D0D7DF0AD0001C38F4509515
:1038F0004095309521953F4F4F4F5F4F0895F6F714
:1039000090958095709561957F4F8F4F9F4F08954B
:103910002F923F924F925F926F927F928F929F92DF
:10392000AF92BF92CF92DF92EF92FF920F931F93CD
:10393000CF93DF93CDB7DEB7CA1BDB0B0FB6F8947E
:10394000DEBF0FBECDBF09942A88398848885F84BE
:103950006E847D848C849B84AA84B984C884DF802F
:10396000EE80FD800C811B81AA81B981CE0FD11D13
:103970000FB6F894DEBF0FBECDBFED010895F894E9
:02398000FFCF77
:10398200204163636573732044656E696564005703
:10399200656C636F6D652000202020200057726FD8
:1039A2006E6720696E70757420293A002D2D295397
:1039B2006D61727420486F6D65282D2D00536D6105
:1039C200727420486F6D6528557365722900536DB6
:1039D20061727420486F6D65284D696E61290041DE
:1039E2007661696C61626C654465766963657300D2
:1039F200312D204C616D707320313A3500322D200B
:103A02004143203600332D20446F6F7200546F20E3
:103A12006C6F67696E2C20506C6561736500656E12
:103A220074657220757220757365726E616D6500C2
:103A3200557365724E616D653A0050617373776FAD
:103A420072643A20002A00557365724E616D653AC0
:103A520000506C656173652C20456E746572207927
:103A62006F757220757365726E616D653A200050D4
:103A72006C656173652C20456E74657220796F7573
:103A8200722070617373776F72643A2000506173B1
:103A920073776F72643A200057656C636F6D6520AF
:103AA2004D696E610057656C636F6D652055736576
:103AB20072005520646F6E742076652061636365C1
:103AC200737300596F75206861766520616C726549
:103AD200616479207369676E656420696E005520A0
:103AE200617265207369676E656420696E00506C4F
:103AF200656173652C20456E746572206E65772052
:103B0200757365726E616D653A2000506C65617304
:103B1200652C20456E746572206E65772070617326
:103B220073776F72643A2000506C656173652C2064
:103B3200456E74657220757365726E616D653A20AB
:103B42000000000000000000000001020203030365
:103B5200030404040404040404050505050505051D
:103B620005050505050505050506060606060606FC
:103B720006060606060606060606060606060606E3
:103B820006060606060606060607070707070707CC
:103B920007070707070707070707070707070707B3
:103BA20007070707070707070707070707070707A3
:103BB2000707070707070707070707070707070793
:103BC200070707070707070707080808080808087C
:103BD2000808080808080808080808080808080863
:103BE2000808080808080808080808080808080853
:103BF2000808080808080808080808080808080843
:103C02000808080808080808080808080808080832
:103C12000808080808080808080808080808080822
:103C22000808080808080808080808080808080812
:103C32000808080808080808080808080808080802
:103C420008080808080808080831323341343536B4
:0A3C520042373839432A302344007A
:00000001FF
