:100000000C942A000C94330A0C945A0A0C94640A37
:100010000C9447000C9447000C9447000C94470044
:100020000C9447000C9447000C9447000C94DD0896
:100030000C9447000C948A070C9447000C944700DA
:100040000C9447000C9447000C9447000C94470014
:100050000C94470011241FBECFE5D8E0DEBFCDBF12
:1000600013E0A0E6B0E0E6EEF1E302C005900D92E9
:10007000AA33B107D9F713E0AAE3B3E001C01D9298
:10008000A037B107E1F70E9490170C94F1180C9477
:100090000000EF92FF920F931F937B018C0120E0F1
:1000A00030E040E05FE40E94F50388238CF0C80153
:1000B000B70120E030E040E05FE40E94C1010E940F
:1000C00083049B01AC01205030404040504806C0A2
:1000D000C801B7010E9483049B01AC01B901CA01A8
:1000E0001F910F91FF90EF900895A0E0B0E0EBE733
:1000F000F0E00C94BA18DC012B01FA019C919230CB
:1001000008F439C1EB018881823008F433C194309E
:1001100069F4843009F02FC111969C91119789815F
:10012000981709F428C1A2E2B2E025C1843009F48D
:1001300021C18230A9F4923009F01DC19A01AD01AC
:1001400088E0EA010990AE01E90109929E0181501F
:10015000C1F7E201898111969C918923818308C1AD
:10016000923009F407C112962D903C901397EB0141
:100170008A819B811496AD90BD90CD90DC901797AD
:10018000EC80FD800E811F819101281B390BB90184
:1001900037FF04C066277727621B730B6032710537
:1001A0000CF061C0121613066CF537014801062EDB
:1001B00004C096948794779467940A94D2F721E0C8
:1001C00030E040E050E004C0220F331F441F551FB1
:1001D0006A95D2F721503040404050402E213F21B7
:1001E00040235123211531054105510521F021E01E
:1001F00030E040E050E079018A01E628F72808293C
:1002000019293CC0232BD1F1260E371E350146019A
:10021000062E04C096948794779467940A94D2F734
:1002200021E030E040E050E004C0220F331F441FC3
:10023000551F6A95D2F721503040404050402A2146
:100240003B214C215D21211531054105510521F04E
:1002500021E030E040E050E059016A01A628B728CB
:10026000C828D9280BC0821593052CF01C01AA249C
:10027000BB24650103C0EE24FF24870111969C91E5
:10028000D20111968C91981709F445C0992339F041
:10029000A80197012A193B094C095D0906C0A6016E
:1002A00095012E193F09400B510B57FD08C01182D3
:1002B0003382228224833583468357831DC081E0A5
:1002C00081833382228288279927DC01821B930B4A
:1002D000A40BB50B84839583A683B7830DC0220F2F
:1002E000331F441F551F24833583468357838281E0
:1002F000938101979383828324813581468157813D
:10030000DA01C9010197A109B1098F5F9F4FAF4F72
:10031000BF4328F30BC0918333822282EA0CFB1C7B
:100320000C1D1D1DE482F5820683178383E0808304
:10033000248135814681578157FF1AC0C901AA27F8
:1003400097FDA095BA2F81709070A070B0705695EF
:10035000479537952795822B932BA42BB52B848318
:100360009583A683B7838281938101969383828349
:10037000DF0101C0D201CD01CDB7DEB7E2E10C94BF
:10038000D618A0E2B0E0E7ECF1E00C94C61869835F
:100390007A838B839C832D833E834F835887E9E048
:1003A000EE2EF12CEC0EFD1ECE010196B7010E943F
:1003B00074068E010F5E1F4FCE010596B8010E9494
:1003C00074068A8991E089278A8BC701B801AE013A
:1003D000475E5F4F0E9475000E949F05A096E6E071
:1003E0000C94E218A0E2B0E0E8EFF1E00C94C6183B
:1003F00069837A838B839C832D833E834F835887C5
:10040000F9E0EF2EF12CEC0EFD1ECE010196B701A6
:100410000E9474068E010F5E1F4FCE010596B80133
:100420000E947406C701B801AE01475E5F4F0E948B
:1004300075000E949F05A096E6E00C94E218A0E2E9
:10044000B0E0E5E2F2E00C94BA1869837A838B831A
:100450009C832D833E834F835887CE010196BE0136
:10046000675F7F4F0E947406CE010596BE016F5EE6
:100470007F4F0E9474069985923088F08989823076
:10048000C8F0943019F4823051F404C0843029F457
:10049000923081F482E292E0C6C0923049F420E0CA
:1004A0009A858A89981321E02A87CE010996BBC0D4
:1004B000823049F420E09A858A89981321E02A8BBA
:1004C000CE014196B0C02D843E844F8458886D88FB
:1004D0007E888F88988CEE24FF248701AA24BB2471
:1004E000650140E050E060E070E0E0E0F0E0C10174
:1004F00081709070892BE9F0E60CF71C081D191D1E
:100500009A01AB012A0D3B1D4C1D5D1D80E090E062
:10051000A0E0B0E0E614F7040805190520F481E036
:1005200090E0A0E0B0E0BA01A901480F591F6A1F8E
:100530007B1FAA0CBB1CCC1CDD1C97FE08C081E0F5
:1005400090E0A0E0B0E0A82AB92ACA2ADB2A3196B6
:10055000E032F10549F0660C771C881C991C569412
:10056000479437942794C3CFFA85EA892B893C892D
:100570008B859C85280F391F2E5F3F4F17C0CA01FE
:1005800081709070892B61F016950795F794E79428
:1005900080E090E0A0E0B0E8E82AF92A0A2B1B2BC3
:1005A00076956795579547952F5F3F4F77FDE7CF36
:1005B0000CC0440F551F661F771F17FD4160EE0CDE
:1005C000FF1C001F111F21503040403090E05907A0
:1005D00090E0690790E4790760F32B8F3C8FDB0193
:1005E000CA018F779070A070B07080349105A1051A
:1005F000B10561F447FD0AC0E114F10401051105DC
:1006000029F0405C5F4F6F4F7F4F40781A8EFE1786
:1006100011F081E08A8F4D8F5E8F6F8F78A383E01A
:10062000898FCE0149960E949F05A096E2E10C9425
:10063000D618A8E1B0E0EFE1F3E00C94C2186983AA
:100640007A838B839C832D833E834F835887B9E0C5
:10065000EB2EF12CEC0EFD1ECE010196B7010E948F
:1006600074068E010F5E1F4FCE010596B8010E94E1
:1006700074062985223008F47EC03989323010F49E
:10068000B8017CC08A859A8989278A87243011F02D
:10069000223031F4231709F06EC062E272E06EC0BE
:1006A000343039F41D861E861F86188A1C861B86E8
:1006B00004C0323021F484E08987B7015FC02B8504
:1006C0003C858B899C89281B390B3C872B87ED84C3
:1006D000FE840F851889AD88BE88CF88D88CEA142F
:1006E000FB040C051D0540F4EE0CFF1C001F111F40
:1006F000215030403C872B8720E030E040E050E044
:1007000080E090E0A0E0B0E460E070E0EA14FB0478
:100710000C051D0540F0282B392B4A2B5B2BEA18C2
:10072000FB080C091D09B695A79597958795EE0CC2
:10073000FF1C001F111F6F5F7F4F6F31710531F775
:10074000DA01C9018F779070A070B0708034910584
:10075000A105B10561F427FD0AC0E114F10401050A
:10076000110529F0205C3F4F4F4F5F4F20782D87B8
:100770003E874F87588BBE01675F7F4FCB010E943A
:100780009F056896EAE00C94DE18A8E1B0E0EBEC77
:10079000F3E00C94C61869837A838B839C832D8342
:1007A0003E834F83588789E0E82EF12CEC0EFD1E26
:1007B000CE010196B7010E9474068E010F5E1F4F95
:1007C000CE010596B8010E9474068985823040F0FA
:1007D0008989823028F0C701B8010E94EC0601C067
:1007E00081E06896E6E00C94E218A8E1B0E0EBEF57
:1007F000F3E00C94C61869837A838B839C832D83E2
:100800003E834F83588789E0E82EF12CEC0EFD1EC5
:10081000CE010196B7010E9474068E010F5E1F4F34
:10082000CE010596B8010E9474068985823040F099
:100830008989823028F0C701B8010E94EC0601C006
:100840008FEF6896E6E00C94E218A8E0B0E0EBE2E7
:10085000F4E00C94C3189B01AC0183E08983DA01B6
:10086000C9018827B7FD83959927AA27BB27B82EEA
:10087000211531054105510519F482E089833AC0FB
:100880008823A9F0203080E0380780E0480780E81E
:10089000580729F460E070E080E09FEC30C0EE245F
:1008A000FF248701E21AF30A040B150B02C0790139
:1008B0008A018EE1C82ED12CDC82CB82ED82FE82B1
:1008C0000F831887C801B7010E94500501971816B9
:1008D000190684F4082E04C0EE0CFF1C001F111F23
:1008E0000A94D2F7ED82FE820F831887C81AD90ABC
:1008F000DC82CB82BA82CE0101960E949F052896A7
:10090000E9E00C94DF18ACE0B0E0E9E8F4E00C9426
:10091000CA1869837A838B839C83CE010196BE01BA
:100920006B5F7F4F0E9474068D81823061F182304F
:1009300050F1843021F48E81882351F12EC02F8113
:10094000388537FD20C06E812F3131051CF06623BC
:10095000F9F023C08EE190E0821B930B29853A8544
:100960004B855C8504C056954795379527958A95A4
:10097000D2F76623B1F050954095309521953F4FC1
:100980004F4F5F4F0EC020E030E040E050E009C024
:100990002FEF3FEF4FEF5FE704C020E030E040E093
:1009A00050E8B901CA012C96E2E00C94E618A8E0E0
:1009B000B0E0EDEDF4E00C94C2187B018C01611500
:1009C00071058105910519F482E0898360C083E097
:1009D00089838EE1C82ED12CDC82CB82ED82FE820F
:1009E0000F831887C801B7010E945005FC01319799
:1009F000F7FF3BC0222733272E1B3F0B570168010F
:100A0000022E04C0D694C794B794A7940A94D2F740
:100A100040E050E060E070E081E090E0A0E0B0E015
:100A200004C0880F991FAA1FBB1F2A95D2F70197F0
:100A3000A109B1098E219F21A023B1230097A1050F
:100A4000B10521F041E050E060E070E04A295B2907
:100A50006C297D294D835E836F8378878EE190E0DA
:100A60008E1B9F0B9C838B8312C0309781F00E2EC0
:100A700004C0EE0CFF1C001F111F0A94D2F7ED8278
:100A8000FE820F831887CE1ADF0ADC82CB821A829D
:100A9000CE0101960E949F052896EAE00C94DE188C
:100AA000EF92FF920F931F937B018C0180E0E81679
:100AB00080E0F80681E0080780E0180788F48FEFEF
:100AC000E816F1040105110531F028F088E090E006
:100AD000A0E0B0E017C080E090E0A0E0B0E012C07D
:100AE00080E0E81680E0F80680E0080781E018075B
:100AF00028F088E190E0A0E0B0E004C080E190E060
:100B0000A0E0B0E020E230E040E050E0281B390BEC
:100B10004A0B5B0B04C016950795F794E7948A95EA
:100B2000D2F7F701E65DFD4F8081281B31094109AD
:100B30005109C9011F910F91FF90EF900895DF9225
:100B4000EF92FF920F931F93FC01E480F5800681E2
:100B50001781D1808081823048F480E090E0A0E16C
:100B6000B0E0E82AF92A0A2B1B2BA5C0843009F42F
:100B70009FC0823021F4EE24FF24870105C0E114D8
:100B8000F1040105110519F4E0E0F0E096C062817E
:100B900073819FEF623879070CF05BC022E83FEF6A
:100BA000261B370B2A3131052CF020E030E040E0E5
:100BB00050E02AC0B801A701022E04C076956795BF
:100BC000579547950A94D2F781E090E0A0E0B0E015
:100BD00004C0880F991FAA1FBB1F2A95D2F701973F
:100BE000A109B1098E219F21A023B1230097A1055E
:100BF000B10521F081E090E0A0E0B0E09A01AB0106
:100C0000282B392B4A2B5B2BDA01C9018F77907087
:100C1000A070B07080349105A105B10539F427FFAB
:100C200009C0205C3F4F4F4F5F4F04C0215C3F4FD6
:100C30004F4F5F4FE0E0F0E02030A0E03A07A0E047
:100C40004A07A0E45A0710F0E1E0F0E079018A01D8
:100C500027C06038710564F5FB01E158FF4FD801EA
:100C6000C7018F779070A070B07080349105A10596
:100C7000B10539F4E7FE0DC080E490E0A0E0B0E0FB
:100C800004C08FE390E0A0E0B0E0E80EF91E0A1F78
:100C90001B1F17FF05C016950795F794E79431962B
:100CA00087E016950795F794E7948A95D1F705C0E4
:100CB000EE24FF248701EFEFF0E06E2F67956627A3
:100CC0006795902F9F77D794DD24D7948E2F8695A4
:100CD000492F462B582F5D29B701CA011F910F914B
:100CE000FF90EF90DF900895FC01DB01408151817E
:100CF0002281622F6F7770E0221F2227221F9381AB
:100D0000892F880F822B282F30E0991F9927991F50
:100D100011969C93119721153105A9F5411551059F
:100D20006105710511F482E037C082E89FEF1396E8
:100D30009C938E9312979A01AB0167E0220F331FA9
:100D4000441F551F6A95D1F783E08C930DC0220F85
:100D5000331F441F551F12968D919C911397019735
:100D600013969C938E931297203080E0380780E092
:100D7000480780E4580758F314962D933D934D93FC
:100D80005C93179708952F3F310579F4411551056C
:100D90006105710519F484E08C93089564FF03C024
:100DA00081E08C9312C01C9210C02F5730401396D4
:100DB0003C932E93129783E08C9387E0440F551F4A
:100DC000661F771F8A95D1F7706414964D935D93D3
:100DD0006D937C93179708951F93DC01FB019C9101
:100DE000923008F447C08081823008F443C09430C8
:100DF00051F411961C91843099F58181682F70E02F
:100E0000611B71093FC0843021F0923031F482308F
:100E1000B9F18181882389F12DC011961C91119718
:100E20008230F1F081811817D9F412962D913C91FE
:100E30001397828193818217930794F028173907BB
:100E4000BCF014968D919D910D90BC91A02D2481A4
:100E5000358146815781281739074A075B0718F4FF
:100E6000112341F00AC082179307A407B50740F485
:100E7000112319F061E070E005C06FEF7FEF02C051
:100E800060E070E0CB011F91089581B5886081BD5D
:100E900081B5816081BD81B5826081BD81B584608D
:100EA00081BD0895A89508958CB980E090E05E9981
:100EB00005C001962EE480329207C9F708955F9B22
:100EC000FECF8CB108951CB8089590935F03809372
:100ED0005E030895EF92FF920F931F93CF93DF93DA
:100EE000082FEB0110E080EAE82E8FE0F82EFE01DB
:100EF000E10FF11D80810E9454071F5FC701019718
:100F0000F1F70117A0F7DF91CF911F910F91FF909B
:100F1000EF9008951F920F920FB60F9211242F9306
:100F20003F934F935F936F937F938F939F93AF9371
:100F3000BF93EF93FF93E0915E03F0915F030995F8
:100F4000FF91EF91BF91AF919F918F917F916F91A1
:100F50005F914F913F912F910F900FBE0F901F9077
:100F6000189554985398089588E260E00E946E0A9C
:100F700089E261E00E946E0A529886E880BD87E6A9
:100F800089B9579A549A539A0895882349F483B794
:100F90008F7B83BF83B7877F83BF89B7816089BF1A
:100FA0000895882359F5CB01BA0128EE33E040E0DB
:100FB00050E00E943E1836E09695879577956795A4
:100FC0003A95D1F7BB27A92F982F872F80933A0303
:100FD00090933B03A0933C03B0933D03262F6623DD
:100FE00069F0219522BF0196A11DB11D80933A039E
:100FF00090933B03A0933C03B0933D03089581304D
:1010000079F0813018F08230F1F414C083B7816038
:1010100083BF83B78D7F83BF83B7846083BF089509
:101020008EB58E7F8EBD8EB58D7F8EBD8EB5846064
:101030008EBD089585B5816085BD85B58D7F85BDE3
:1010400085B5846085BD0895813079F0813018F0D0
:101050008230F1F414C083B78E7F83BF83B78D7F56
:1010600083BF83B78B7F83BF08958EB58E7F8EBD80
:101070008EB58D7F8EBD8EB58B7F8EBD089585B567
:101080008E7F85BD85B58D7F85BD85B58B7F85BD03
:101090000895EF92FF920F931F937A018B01813095
:1010A00051F1813020F0823009F059C041C0CB01AC
:1010B000BA0120E030E040E050E00E94C503882300
:1010C00011F41CBE4CC0C801B70120E030E040E87C
:1010D00053E40E941F0220E030E048EC52E40E94FA
:1010E000190320E030E040E85FE30E94C1010E9464
:1010F00049006CBF34C066B577B580E090E00E94CF
:10110000D7049B01AC01C801B7010E941F0220E077
:1011100030E048EC52E40E94190320E030E040E85F
:101120005FE30E94C1010E9449007BBD6ABD17C0F8
:10113000CB01BA0120E030E040E853E40E941F02F6
:1011400020E030E048EC52E40E94190320E030E057
:1011500040E85FE30E94C1010E94490063BD1F9106
:101160000F91FF90EF900895282F30E040E050E07D
:1011700064E274EF80E090E00E949F1837BD26BDC6
:1011800008950E94FF0708950E9424080895813061
:1011900051F0813018F0823079F40AC07093650301
:1011A00060936403089570936303609362030895EA
:1011B000709361036093600308951F920F920FB6BE
:1011C0000F9211242F933F934F935F936F937F93CD
:1011D0008F939F93AF93BF93EF93FF9380914303BC
:1011E00090914403A0914503B09146030196A11D3F
:1011F000B11D8093430390934403A0934503B093A0
:10120000460320913A0330913B0340913C035091B7
:101210003D0382179307A407B50789F4E09164039F
:10122000F0916503099580913E03819582BF1092EC
:101230004303109244031092450310924603FF911A
:10124000EF91BF91AF919F918F917F916F915F913E
:101250004F913F912F910F900FBE0F901F901895B7
:101260008130B1F0813018F08230C9F528C087E1B3
:1012700061E00E946E0A83B7806483BF83B7886091
:1012800083BF83B78F7E83BF83B7806283BF089598
:101290008DE261E00E946E0A8FB58E7F8FBD8FB5A3
:1012A00082608FBD8EB588608EBD8EB580618EBD2B
:1012B0008FB58F7B8FBD8FB580688FBD08958FE20E
:1012C00061E00E946E0A85B5806485BD85B5886041
:1012D00085BD85B58F7E85BD85B5806285BD089548
:1012E0008FB980E090E0A0E0B0E077990BC0019664
:1012F000A11DB11D803824E892072EE1A20720E04D
:10130000B20799F78FB108956C9889E160E00E9467
:101310006E0A8AE161E00E946E0A88E160E00E9444
:101320006E0A8BE160E00E946E0A6D9A6E9A0895D3
:101330008CE080B986B7846086BF089586B78062E6
:1013400086BF86B7806886BF06B607FEFDCF81B12F
:10135000887F8830E1F7089586B7806186BF86B7B9
:10136000806886BF089586B7806286BF86B780682A
:1013700086BF06B607FEFDCF81B1887F8031E1F7D9
:101380000895880F83B986B7806886BF06B607FEC2
:10139000FDCF81B1887F8831E1F70895880F8160A2
:1013A00083B986B78F7D86BF86B7806886BF06B64D
:1013B00007FEFDCF81B1887F8034E1F7089583B9BE
:1013C00086B78F7D86BF86B7806886BF06B607FE64
:1013D000FDCF81B1887F8832E1F7089586B78F7D90
:1013E00086BF86B7806486BF86B7806886BF06B62C
:1013F00007FEFDCF81B1887F8035E1F783B1089585
:1014000016BE86B7846086BF08958FB780688FBF89
:1014100008958FB78F778FBF0895813071F0813035
:1014200018F08230D1F413C085B7816085BF85B7CD
:10143000826085BF8BB7806408C085B78B7F85BF0E
:1014400085B7886085BF8BB780688BBF089584B7E8
:10145000806484BF8BB780628BBF089590936703CD
:101460008093660308951F920F920FB60F92112476
:101470002F933F934F935F936F937F938F939F939C
:10148000AF93BF93EF93FF93E0916603F0916703EF
:101490000995FF91EF91BF91AF919F918F917F91AE
:1014A0006F915F914F913F912F910F900FBE0F90D1
:1014B0001F9018951F920F920FB60F9211240F9044
:1014C0000FBE0F901F9018951F920F920FB60F929C
:1014D00011240F900FBE0F901F901895282F462FA4
:1014E0006AE00E945D18392F822F0E945D18442304
:1014F00021F0413009F076C03EC08230C1F0833027
:1015000020F4813009F06EC006C08330E1F08430F1
:1015100009F068C024C02AB381E090E002C0880FBF
:10152000991F3A95E2F7809582238ABB089527B3E5
:1015300081E090E002C0880F991F3A95E2F780950C
:10154000822387BB089524B381E090E002C0880F16
:10155000991F3A95E2F78095822384BB089521B3C1
:1015600081E090E002C0880F991F3A95E2F78095DC
:10157000822381BB08958230A9F0833018F4813032
:1015800089F505C08330C9F0843061F521C02AB3E4
:1015900081E090E002C0880F991F3A95E2F7282B6E
:1015A0002ABB089527B381E090E002C0880F991FFD
:1015B0003A95E2F7282B27BB089524B381E090E009
:1015C00002C0880F991F3A95E2F7282B24BB089593
:1015D00021B381E090E002C0880F991F3A95E2F7AD
:1015E000282B21BB0895282F462F6AE00E945D1802
:1015F000392F822F0E945D18442321F0413009F0D9
:1016000076C03EC08230C1F0833020F4813009F0D2
:101610006EC006C08330E1F0843009F068C024C099
:101620002BB381E090E002C0880F991F3A95E2F752
:10163000809582238BBB089528B381E090E002C09F
:10164000880F991F3A95E2F78095822388BB089509
:1016500025B381E090E002C0880F991F3A95E2F728
:101660008095822385BB089522B381E090E002C07B
:10167000880F991F3A95E2F78095822382BB0895DF
:101680008230A9F0833018F4813089F505C08330A9
:10169000C9F0843061F521C02BB381E090E002C035
:1016A000880F991F3A95E2F7282B2BBB089528B392
:1016B00081E090E002C0880F991F3A95E2F7282B4D
:1016C00028BB089525B381E090E002C0880F991FE0
:1016D0003A95E2F7282B25BB089522B381E090E0EC
:1016E00002C0880F991F3A95E2F7282B22BB089574
:1016F000282F6AE00E945D18392F822F0E945D1802
:101700008230A9F0833018F4813089F505C0833028
:10171000C9F0843061F521C02BB381E090E002C0B4
:10172000880F991F3A95E2F728272BBB089528B315
:1017300081E090E002C0880F991F3A95E2F72827D0
:1017400028BB089525B381E090E002C0880F991F5F
:101750003A95E2F7282725BB089522B381E090E06F
:1017600002C0880F991F3A95E2F7282722BB0895F7
:10177000282F6AE00E945D18392F822F0E945D1881
:10178000823069F0833018F4813029F406C0833048
:1017900041F0843079F080E0089589B303C086B3C6
:1017A00001C083B390E002C0959587953A95E2F722
:1017B0008170089580B390E002C0959587953A9521
:1017C000E2F781700895282F462F6AE00E945D1885
:1017D000392F822F0E945D18442321F0413009F0F7
:1017E00076C03EC08230C1F0833020F4813009F0F1
:1017F0006EC006C08330E1F0843009F068C024C0B8
:101800002BB381E090E002C0880F991F3A95E2F770
:10181000809582238BBB089528B381E090E002C0BD
:10182000880F991F3A95E2F78095822388BB089527
:1018300025B381E090E002C0880F991F3A95E2F746
:101840008095822385BB089522B381E090E002C099
:10185000880F991F3A95E2F78095822382BB0895FD
:101860008230A9F0833018F4813089F505C08330C7
:10187000C9F0843061F521C02BB381E090E002C053
:10188000880F991F3A95E2F7282B2BBB089528B3B0
:1018900081E090E002C0880F991F3A95E2F7282B6B
:1018A00028BB089525B381E090E002C0880F991FFE
:1018B0003A95E2F7282B25BB089522B381E090E00A
:1018C00002C0880F991F3A95E2F7282B22BB089592
:1018D0003F983E9A3D98329A319A309A359A379A83
:1018E0000895813061F0813028F0823069F08330D2
:1018F000B1F410C03C983B983A98399809C03C988C
:101900003B983A9839980AC03C983B983A98399A4B
:10191000389805C03C983B983A98399A389A369A44
:1019200080E090E0A0E0B0E034990BC00196A11DEA
:10193000B11D80302DE2920721E3A20721E0B2071A
:1019400099F724B135B1C901089581E00E94C40816
:10195000089581E00E94C108089590E0AA2797FDAC
:10196000A095BA2FBC01CD010E94250420E030E0F3
:1019700040EA50E40E941F0220E030E044E353E4D8
:101980000E94190320E030E040EA50E40E94F20196
:10199000AB01BC0181E00E944908089581E00E94EA
:1019A000300982E30E94B40808958430A1F18530A3
:1019B00050F48130D9F08130B0F08230F1F08330D2
:1019C00009F066C01DC0873099F1883030F4853049
:1019D00029F1863009F05CC028C08830C1F1893017
:1019E00009F056C045C08EE060E002C08EE061E0C4
:1019F0000E94F30A8FE060E009C08EE060E002C060
:101A00008EE061E00E94F30A8FE061E00E94F30A39
:101A100080E160E017C08EE060E002C08EE061E02F
:101A20000E94F30A8FE060E009C08EE060E002C02F
:101A30008EE061E00E94F30A8FE061E00E94F30A09
:101A400080E161E00E94F30A81E160E00EC08EE077
:101A500060E00E94F30A8FE060E00E94F30A80E1F8
:101A600060E00E94F30A81E161E00E94F30A0895B8
:101A70008EE061E00E94F30A8FE060E00E94F30ACA
:101A800080E160E00E94F30A81E161E00E94F30AD4
:101A90000895EF92FF920F931F93CF93DF93282F18
:101AA0006AE00E945D18E92E822F0E945D18F82ED0
:101AB000C0E0D0E000EA1FE08F2D0E94D50C86E147
:101AC00061E00E94F30AC8010197F1F786E160E046
:101AD0000E94F30A8E2D0E94D50C85E161E00E94E0
:101AE000F30AC8010197F1F785E160E00E94F30A6B
:101AF000219681E0C43FD807F9F6DF91CF911F917D
:101B00000F91FF90EF9008958EE061E00E946E0AC1
:101B10008FE061E00E946E0A80E161E00E946E0A3F
:101B200081E161E00E946E0A85E161E00E946E0A37
:101B300086E161E00E946E0A0895813001F18130F2
:101B400020F0823009F04DC033C084E10E94B80B10
:101B5000813009F046C084E195E020E931E0F901E7
:101B60003197F1F70197D9F784E10E94B80B8130E2
:101B7000C1F584E10E94B80B8130D9F334C08EE204
:101B80000E94B80B813069F584E195E020E931E0ED
:101B9000F9013197F1F70197D9F78EE20E94B80B5E
:101BA0008130F9F48EE20E94B80B8130D9F31BC06A
:101BB0008AE20E94B80B8130A1F484E195E020E92B
:101BC00031E0F9013197F1F70197D9F78AE20E94E4
:101BD000B80B813031F48AE20E94B80B8130D9F31E
:101BE00002C080E0089581E00895813029F08130BD
:101BF00018F0823051F405C084E160E00E946E0A62
:101C0000089584E160E00E946E0A089581E00E94D8
:101C1000710CA0E0B0E0BC01CD0124EF31E040E068
:101C200050E00E943E182FEF33E040E050E00E9469
:101C30007D18C90108950E94680C0895823091F0C2
:101C4000833028F4882351F08130B9F409C08430FE
:101C500069F0843048F0853081F40CC080E207C020
:101C600085E205C08BE203C08AE201C08EE20E94D9
:101C7000780B089584E10E94780B0895823091F0EA
:101C8000833028F4882351F08130C9F409C08430AE
:101C900069F0843048F0853091F40DC080E207C0CF
:101CA00085E205C08BE203C08AE201C08EE260E0FB
:101CB0000E94F30A089584E160E00E94F30A089507
:101CC000823091F0833028F4882351F08130C9F4B8
:101CD00009C0843069F0843048F0853091F40DC03B
:101CE00080E207C085E205C08BE203C08AE201C042
:101CF0008EE261E00E94F30A089584E161E00E94AF
:101D0000F30A0895823091F0833028F4882351F04B
:101D10008130C9F409C0843069F0843048F08530DE
:101D200091F40DC080E207C085E205C08BE203C0DC
:101D30008AE201C08EE261E00E946E0A089584E1A9
:101D400061E00E946E0A089590936903809368038E
:101D500008951F93182F682F61708EE00E94F30A78
:101D6000612F669561708FE00E94F30A16951695B3
:101D7000612F617080E10E94F30A1695117081E174
:101D8000612F0E94F30A1F910895FF920F931F93F2
:101D9000F82E85E160E00E94F30A8F2D82958F7006
:101DA0000E94A90E87E161E00E94F30A00EA1FE0A9
:101DB000C8010197F1F787E160E00E94F30AC801CA
:101DC0000197F1F78F2D0E94A90E87E161E00E9433
:101DD000F30AC8010197F1F787E160E00E94F30A76
:101DE000C8010197F1F71F910F91FF90089581E0CD
:101DF0000E94C50E0895DF93CF9300D0CDB7DEB714
:101E000090E8998390EC9A83FE01E80FF11D81819F
:101E1000860F0E94C50E0F900F90CF91DF9108950D
:101E2000FF920F931F93F82E85E161E00E94F30A61
:101E30008F2D82958F700E94A90E87E161E00E942C
:101E4000F30A00EA1FE0C8010197F1F787E160E0BB
:101E50000E94F30AC8010197F1F78F2D0E94A90E85
:101E600087E161E00E94F30AC8010197F1F787E179
:101E700060E00E94F30AC8010197F1F71F910F91EA
:101E8000FF9008958F929F92BF92CF92DF92EF9230
:101E9000FF920F931F93DF93CF93CDB7DEB7609779
:101EA0000FB6F894DEBF0FBECDBF7B018C0197FF4C
:101EB0000BC010950095F094E094E11CF11C011DFD
:101EC000111D8DE20E94100F4E010894811C911C7F
:101ED0006401BC2CB818C801B7012AE030E040E02A
:101EE00050E00E949F18F60161936F01C801B7018D
:101EF0002AE030E040E050E00E949F18C901DA017A
:101F00007C018D01E114F1040105110511F78B2D00
:101F1000992787FD90958E010F5F1F4F080F191F9E
:101F2000F8018081805D0E94100FBA94015010402A
:101F3000FFEFBF16A9F760960FB6F894DEBF0FBE8D
:101F4000CDBFCF91DF911F910F91FF90EF90DF9068
:101F5000CF90BF909F908F9008951F93CF93DF9362
:101F6000EC0110E003C00E94100F1F5FFE01E10FA3
:101F7000F11D80818823B9F7DF91CF911F910895DA
:101F80000E94F70E80E060E00E94FB0E80E690E089
:101F90000E94AD0F80E197E220E931E0F90131972D
:101FA000F1F70197D9F70895CF93DF93EC01809172
:101FB000570381508230F8F40E94F70E80E060E011
:101FC0000E94FB0E8FE690E00E94AD0FCE010E94B2
:101FD000AD0F80E06CE00E94FB0E88E790E00E946D
:101FE000AD0F80E395E720E931E0F9013197F1F792
:101FF0000197D9F713C00E94F70E80E060E00E94BD
:10200000FB0E8DE790E00E94AD0F80E395E720E99D
:1020100031E0F9013197F1F70197D9F7DF91CF91CD
:102020000895DF92EF92FF920F931F93D82E0E9494
:10203000F70E81E0D81661F0D81638F092E0D91684
:1020400039F0A3E0DA1659F406C08CE890E005C038
:102050008DE990E002C08EEA90E00E94AD0F81E031
:1020600060E00E94FB0E8FEB90E00E94AD0FE090CD
:102070006C03F0906D0300916E0310916F0385E087
:1020800090E0A0E0B0E0E80EF91E0A1F1B1F08C098
:10209000E0916803F09169030995882309F097C0DE
:1020A00080916C0390916D03A0916E03B0916F03CA
:1020B000E816F9060A071B0758F70E94F70E80E09A
:1020C00060E00E94FB0E80ED90E00E94AD0F81E089
:1020D00060E00E94FB0E8DED90E00E94AD0FDD20D0
:1020E00021F093E0D91661F403C081E068E002C0FA
:1020F00081E069E00E94FB0E85EE90E00E94AD0F4A
:10210000E0906C03F0906D0300916E0310916F03EB
:1021100085E090E0A0E0B0E0E80EF91E0A1F1B1F6A
:1021200008C0E0916803F09169030995882309F0DC
:102130004EC080916C0390916D03A0916E03B0919D
:102140006F03E816F9060A071B0758F7DD20A9F503
:1021500080E060E00E94FB0E8DEE90E00E94AD0FEB
:1021600081E060E00E94FB0E8EEF90E00E94AD0FD8
:10217000E0906C03F0906D0300916E0310916F037B
:1021800085E090E0A0E0B0E0E80EF91E0A1F1B1FFA
:1021900007C0E0916803F091690309958823B9F4B9
:1021A00080916C0390916D03A0916E03B0916F03C9
:1021B000E816F9060A071B0760F78091590381307A
:1021C00029F0823009F033CFDD2431CF80E01F9138
:1021D0000F91FF90EF90DF9008958EE061E00E94F4
:1021E0006E0A8FE061E00E946E0A80E161E00E9469
:1021F0006E0A81E161E00E946E0A85E161E00E9461
:102200006E0A87E161E00E946E0A86E161E00E9449
:102210006E0A86E160E00E94F30A83E30E94C50E25
:1022200082E30E94C50E88E20E94C50E8CE00E94E7
:10223000C50E81E00E94C50E82E00E94C50E089581
:1022400090936B0380936A0308958F929F92AF924D
:10225000BF92DF92EF92FF920F931F93DF93CF9382
:10226000CDB7DEB760970FB6F894DEBF0FBECDBF17
:10227000DE011196EAE2F3E080E101900D928150D7
:10228000E1F7DD24EE24FF2490E9892E91E0992ED8
:102290005E010894A11CB11C0E2D0F5D802F60E023
:1022A0000E94F30A18E1812F0E94B80B8823C1F421
:1022B00080EB94E0F4013197F1F70197D9F7812F82
:1022C0000E94B80B882361F4F701EE0FFF1FEE0F99
:1022D000FF1FEA0DFB1DE10FF11D7897D08003C0B1
:1022E0001F5F1C3101F7802F61E00E94F30A089400
:1022F000E11CF11C84E0E816F10471F68D2D609666
:102300000FB6F894DEBF0FBECDBFCF91DF911F9106
:102310000F91FF90EF90DF90BF90AF909F908F90C4
:102320000895109248031092490310924A031092A4
:102330004B0310924C0310924D0310924E03809366
:102340004703E0916A03F0916B0380E060E040E1B5
:1023500051E00995E0916A03F0916B0380E069E038
:1023600047E453E0099580E197E220E931E0F90183
:102370003197F1F70197D9F70E942511809348030F
:102380008823D1F3E0916A03F0916B0380E06AE067
:1023900048E453E0099588E893E120E931E0F90148
:1023A0003197F1F70197D9F70E94251180934903DE
:1023B0008823D1F3E0916A03F0916B0380E06BE036
:1023C00049E453E0099588E893E120E931E0F90117
:1023D0003197F1F70197D9F70E94251180934A03AD
:1023E0008823D1F3E0916A03F0916B0380E06CE005
:1023F0004AE453E0099588E893E120E931E0F901E6
:102400003197F1F70197D9F7E0916A03F0916B03E7
:1024100081E060E04AE151E009950E942511809336
:102420004B038823D1F3E0916A03F0916B0381E0C1
:1024300069E04BE453E0099588E893E120E931E055
:10244000F9013197F1F70197D9F70E94251180938F
:102450004C038823D1F3E0916A03F0916B0381E090
:102460006AE04CE453E0099588E893E120E931E023
:10247000F9013197F1F70197D9F70E94251180935F
:102480004D038823D1F3E0916A03F0916B0381E05F
:102490006BE04DE453E0099588E893E120E931E0F1
:1024A000F9013197F1F70197D9F70E94251180932F
:1024B0004E038823D1F3E0916A03F0916B0381E02E
:1024C0006CE04EE453E0099588E893E120E931E0BF
:1024D000F9013197F1F70197D9F787E493E008956F
:1024E00081E261E00E946E0A82E261E00E946E0A6F
:1024F00083E261E00E946E0A84E261E00E946E0A5B
:1025000088E160E00E946E0A89E160E00E946E0A44
:102510008AE160E00E946E0A8BE160E00E946E0A30
:1025200088E161E00E94E30B89E161E00E94E30B36
:102530008AE161E00E94E30B8BE161E00E94E30B22
:1025400081E261E00E94F30A82E261E00E94F30A04
:1025500083E261E00E94F30A84E261E00E94F30AF0
:10256000089581E00E94C408089581E00E94C10896
:102570000895882319F0813091F409C083E260E066
:102580000E94F30A84E261E00E94F30A089583E264
:1025900061E00E94F30A84E260E00E94F30A089579
:1025A0000E94D704AB01BC0181E00E944908089554
:1025B00083E261E00E946E0A84E261E00E946E0A9A
:1025C00081E00E94300908958DE061E00E94F30AE5
:1025D00088E592E020E931E0F9013197F1F70197C0
:1025E000D9F78DE060E00E94F30A08958DE060E085
:1025F0000E94F30A08958DE061E00E94F30A0895B5
:10260000CF93DF93C0E9D1E08DE061E00E94F30A4F
:1026100080E395E7FE013197F1F70197D9F78DE057
:1026200060E00E94F30A80E197E2FE013197F1F742
:102630000197D9F78DE061E00E94F30A80E29EE401
:10264000FE013197F1F70197D9F78DE060E00E9424
:10265000F30A80E197E2FE013197F1F70197D9F78C
:102660008DE061E00E94F30A80E197E2FE0131977C
:10267000F1F70197D9F78DE060E00E94F30A80E15D
:1026800097E2FE013197F1F70197D9F7BDCF8DE0C1
:1026900061E00E946E0A08950F931F93CF93DF931A
:1026A000182F062F0E949E091065812F0E94C109D4
:1026B000802F0E94DF090E94B309812F0E94CE095A
:1026C000CFE4D3E00E94EE09899383E0C735D807B1
:1026D000C9F70E94AC09CE010897DF91CF911F91F5
:1026E0000F9108950F931F93CF93DF938C0180E098
:1026F00060E00E944C13EC010E94000A40E020E0E0
:1027000030E0F801E20FF31FDE01A20FB31F90814A
:102710008C91981709F44F5F2F5F3F4F2830310598
:1027200081F7483011F481E000C0DF91CF911F9113
:102730000F9108950F931F93182F062F0E949E0943
:102740001065812F0E94C109802F0E94DF090E941D
:10275000B309812F0E94CE090E94EE09182F0E9412
:10276000AC09812F1F910F910895EF92FF921F9353
:10277000CF93DF937C0119E00E94000A80E0612F73
:102780000E944C13EC010E94000A40E020E030E07F
:10279000F701E20FF31FDE01A20FB31F90818C91AE
:1027A000981709F44F5F2F5F3F4F2830310581F7AD
:1027B000612F6150483021F480E00E949A130BC0D1
:1027C00080E00E949A138F3F21F40E94000A80E06B
:1027D00002C0175FD1CFDF91CF911F91FF90EF9093
:1027E0000895FF920F931F93182F062FF42E0E9427
:1027F0009E09812F80650E94C109802F0E94DF09F8
:102800008F2D0E94DF090E94AC091F910F91FF904C
:102810000895EF92FF920F931F93CF93DF937C0164
:1028200009E00E94000A80E0602F0E944C13EC0136
:102830000E94000A40E020E030E0F701E20FF31FC1
:10284000DE01A20FB31F90818C91981709F44F5F9E
:102850002F5F3F4F2430310581F7602F61504430A6
:1028600059F4162F085F80E0612F40E00E94F113B9
:102870001F5F1017C1F70BC080E00E949A138F3FB3
:1028800021F40E94000A80E003C0075FCACF81E004
:10289000DF91CF911F910F91FF90EF900895EF92EC
:1028A000FF920F931F93CF93DF93082FF62EE72EFF
:1028B00018E00E94000A80E0612F0E949A138F3F67
:1028C00051F580E0612F402F0E94F11380E197E2E3
:1028D00020E931E0F9013197F1F70197D9F7012F9C
:1028E0000F5F8F2D9E2D9C01E90180E9E82E81E08C
:1028F000F82E175F80E0602F48810E94F1130F5F70
:1029000080E197E2F7013197F1F70197D9F7219626
:10291000011781F704C00E94000A175FCACFDF9138
:10292000CF911F910F91FF90EF9008950E94980909
:1029300080E197E220E931E0F9013197F1F7019761
:10294000D9F7089580E00E94600E81E40E94100F84
:10295000089580E00E941E0E089580916C0390916E
:102960006D03A0916E03B0916F030196A11DB11D7F
:1029700080936C0390936D03A0936E03B0936F03E9
:1029800081E00E94710C8050924018F08CE261E06E
:1029900002C08CE260E00E94F30A0895CF93DF93B7
:1029A000EA01813039F4693028F00E94FB0E85E29B
:1029B00091E003C00E94FB0ECE010E94AD0F0E9469
:1029C000E412DF91CF91089580E00E94710C69E0DC
:1029D00070E00E94691880E090E00E94D704AB018B
:1029E000BC0182E00E9449080E9425110895AF921F
:1029F000BF92CF92DF92EF92FF920F931F93DF93DC
:102A0000CF93CDB7DEB728970FB6F894DEBF0FBED1
:102A1000CDBF8CB180935D030E94E4129091570367
:102A2000913009F400C1913038F0923009F4DAC0E5
:102A3000933009F064C2FFC080915D03803321F0C0
:102A4000813309F0F0C064C00E94F70E80E060E0BE
:102A50000E94FB0E87E291E00E94AD0F8DE161E3E1
:102A600071E00E946A0710E05E010894A11CB11C8D
:102A7000E5E2CE2EE1E0DE2E70EAE72E7FE0F72ED3
:102A80000E945F07F501E10FF11D80838823C1F0EB
:102A9000133098F0133081F40E94100F8DE16FE431
:102AA00071E00E946A0781E060E00E94FB0E8DE603
:102AB00091E00E94AD0F03C08C2D0E94100F1F5F8C
:102AC000C7010197F1F71830D8F2CE0101960E94A4
:102AD0007213982F813009F072C083E080935703FE
:102AE000909359030E94F70E80E060E00E94FB0E75
:102AF00088E791E00E94AD0F80E29EE420E931E09A
:102B0000F9013197F1F70197D9F70E94F70EF7C154
:102B10000E94F70E80E060E00E94FB0E87E291E0E9
:102B20000E94AD0F8DE161E371E00E946A0710E041
:102B30005E010894A11CB11C65E2C62E61E0D62E90
:102B400050EAE52E5FE0F52E0E945F07F501E10FE8
:102B5000F11D80838823C1F0133098F0133081F485
:102B60000E94100F8DE16FE471E00E946A0781E01E
:102B700060E00E94FB0E8DE691E00E94AD0F03C065
:102B80008C2D0E94100F1F5FC7010197F1F71830BD
:102B9000D8F28E010F5F1F4FC8010E94B51382301B
:102BA00071F48093570381E0809359038CE066E8C9
:102BB00071E00E946A07C8010E94D40FA0C18091F1
:102BC0005803823020F00E94B1070E9400138091C8
:102BD0005703882309F093C1809158038F5F809336
:102BE00058038DC180915D03873309F41AC188337E
:102BF00040F4853389F0863308F011C1843399F4A9
:102C00000CC1893349F0893308F40DC1813409F4CA
:102C100004C1863441F404C082E00E941E0E6FC1DC
:102C2000909359036AC180E163E971E00E946A07E9
:102C30000E94C00F64C180915D03873309F4F1C025
:102C40008833A8F4833309F4A0C0843350F481336B
:102C500009F43FC0823308F055C0803309F04FC1FA
:102C60001FC08533C9F2863308F0D9C0D6C083347B
:102C700009F401C1843450F4893309F4D6C089338E
:102C800008F4D1C0823409F03AC1E0C0853409F4B7
:102C90002CC1853408F4FCC0863409F030C12AC147
:102CA0008AE164EA71E00E946A070E94F70E80E000
:102CB00060E00E94FB0E8FEB91E00E94AD0F80E17F
:102CC00097E220E931E0F9013197F1F70197D9F75F
:102CD00016C18AE164EA71E00E946A070E94F70E59
:102CE00080E060E00E94FB0E8FEB91E00E94AD0F50
:102CF00080E197E220E931E0F9013197F1F701979E
:102D0000D9F7FDC00E94F70E80E060E00E94FB0E44
:102D100087E291E00E94AD0F8CE16FEC71E00E94C0
:102D20006A0710E05E010894A11CB11C45E2C42EA4
:102D300041E0D42E30EAE32E3FE0F32E0E945F07FD
:102D4000F501E10FF11D80838823C1F0133098F065
:102D5000133081F40E94100F8CE16CEE71E00E9440
:102D60006A0781E060E00E94FB0E8DE691E00E9420
:102D7000AD0F03C08C2D0E94100F1F5FC70101977C
:102D8000F1F71830D8F282E042C00E94F70E80E0DE
:102D900060E00E94FB0E87E291E00E94AD0F8CE1A3
:102DA0006FEC71E00E946A0710E05E010894A11CBC
:102DB000B11C25E2C22E21E0D22E90EAE92E9FE03E
:102DC000F92E0E945F07F501E10FF11D8083882332
:102DD000C1F0133098F0133081F40E94100F8CE191
:102DE0006CEE71E00E946A0781E060E00E94FB0ED9
:102DF0008DE691E00E94AD0F03C08C2D0E94100F54
:102E00001F5FC7010197F1F71830D8F281E0BE01CA
:102E10006F5F7F4F0E944F1472C081E0FECE83E04F
:102E2000FCCE84E0FACE85E0F8CE80915C03882366
:102E300039F482E00E94C10881E080935C035FC0A6
:102E400082E00E94C40810925C0359C080915B0329
:102E5000882349F484EB0E94AD0C0E94A90C81E008
:102E600080935B034CC080E00E94AD0C0E94A90CD3
:102E700010925B0344C080915A03882321F481E0BF
:102E800080935A033CC08130D1F510925A0337C069
:102E90000E94F70E80E060E00E94FB0E87E291E066
:102EA0000E94AD0F88E169E072E00E946A0710E0BD
:102EB0006E010894C11CD11C80EAE82E8FE0F82E28
:102EC0000E945F07F601E10FF11D8083882319F04E
:102ED0000E94100F1F5FC7010197F1F7143080F3B4
:102EE000CE0101960E9409140AC00E94B1070E94F7
:102EF000001305C082E0809359031092570328966F
:102F00000FB6F894DEBF0FBECDBFCF91DF911F91FA
:102F10000F91FF90EF90DF90CF90BF90AF9008950A
:102F20000F931F930E9496140E94050A80E00E944E
:102F3000C5070E9470120E94B4070E94ED1081E044
:102F40000E94820E82E00E94820E83E00E94820E26
:102F500084E00E94820E85E00E94820E0E94680C2E
:102F60000E94CE0C81E00E94300982E00E9430096C
:102F700084EE94E10E94A40E80E048EE53E060E00D
:102F800070E00E94D10780E00E94FF0780E06DEAB8
:102F900074E10E94C70887EF94E10E9465078EECF8
:102FA00094E10E9420118CE261E00E946E0A58C0F8
:102FB000809157030E941110082F0E94F70E8091F4
:102FC0005703813041F1813030F08230C9F08330D5
:102FD00009F046C018C0802F0E9491118C010E94F8
:102FE000B51380935703C8010E94D40F80915703F3
:102FF0008823B1F5809158038F5F8093580330C0C8
:10300000002371F12BC0002359F180915A038823CA
:1030100029F1813029F50333A1F0043338F4013369
:1030200071F00233A0F40033D9F415C0053369F010
:10303000053348F0063359F0073391F408C081E0B6
:1030400007C083E005C084E003C085E001C082E0E2
:103050000E941E0E05C01092570302C00E94C00FAE
:1030600080915803833008F4A3CF0E94B1070E94D7
:10307000001380E090E01F910F910895629FD001AE
:10308000739FF001829FE00DF11D649FE00DF11D23
:10309000929FF00D839FF00D749FF00D659FF00DD2
:1030A0009927729FB00DE11DF91F639FB00DE11DBF
:1030B000F91FBD01CF0111240895991B79E004C0C7
:1030C000991F961708F0961B881F7A95C9F7809567
:1030D0000895AA1BBB1B51E107C0AA1FBB1FA6175F
:1030E000B70710F0A61BB70B881F991F5A95A9F7B1
:1030F00080959095BC01CD010895A1E21A2EAA1BDE
:10310000BB1BFD010DC0AA1FBB1FEE1FFF1FA21797
:10311000B307E407F50720F0A21BB30BE40BF50B94
:10312000661F771F881F991F1A9469F7609570951D
:10313000809590959B01AC01BD01CF01089597FB4F
:10314000092E05260ED057FD04D0D7DF0AD0001C6B
:1031500038F450954095309521953F4F4F4F5F4F34
:103160000895F6F790958095709561957F4F8F4FF4
:103170009F4F08952F923F924F925F926F927F924E
:103180008F929F92AF92BF92CF92DF92EF92FF9277
:103190000F931F93CF93DF93CDB7DEB7CA1BDB0B23
:1031A0000FB6F894DEBF0FBECDBF09942A883988C8
:1031B00048885F846E847D848C849B84AA84B984CF
:1031C000C884DF80EE80FD800C811B81AA81B981DB
:1031D000CE0FD11D0FB6F894DEBF0FBECDBFED01EF
:0631E0000895F894FFCFF2
:1031E600204163636573732044656E6965640057A7
:1031F600656C636F6D652000202020200057726F7C
:103206006E6720696E70757420293A002D2D29533A
:103216006D61727420486F6D65282D2D00536D61A8
:10322600727420486F6D6528557365722900536D59
:1032360061727420486F6D65284D696E6129004181
:103246007661696C61626C65446576696365730075
:10325600312D204C616D707320313A3500322D20AE
:103266004143203600332D20446F6F7200546F2087
:103276006C6F67696E2C20506C6561736500656EB6
:1032860074657220757220757365726E616D650066
:10329600557365724E616D653A0050617373776F51
:1032A60072643A20002A00557365724E616D653A64
:1032B60000506C656173652C20456E7465722079CB
:1032C6006F757220757365726E616D653A20005078
:1032D6006C656173652C20456E74657220796F7517
:1032E600722070617373776F72643A200050617355
:1032F60073776F72643A200057656C636F6D652053
:1033060041484D45440057656C636F6D65205573A4
:103316006572005520646F6E742076652061636364
:1033260065737300596F75206861766520616C72EC
:1033360065616479207369676E656420696E0055FE
:1033460020617265207369676E656420696E00503E
:103356006C656173652C20456E746572206E6577A9
:1033660020757365726E616D653A2000506C6561FB
:1033760073652C20456E746572206E6577207061CA
:103386007373776F72643A2000506C656173652CB5
:1033960020456E74657220757365726E616D653A4F
:1033A60020000000000000000000000102020303EC
:1033B60003030404040404040404050505050505C3
:1033C60005050505050505050505060606060606A1
:1033D6000606060606060606060606060606060687
:1033E6000606060606060606060607070707070771
:1033F6000707070707070707070707070707070757
:103406000707070707070707070707070707070746
:103416000707070707070707070707070707070736
:103426000707070707070707070708080808080820
:103436000808080808080808080808080808080806
:1034460008080808080808080808080808080808F6
:1034560008080808080808080808080808080808E6
:1034660008080808080808080808080808080808D6
:1034760008080808080808080808080808080808C6
:1034860008080808080808080808080808080808B6
:1034960008080808080808080808080808080808A6
:1034A6000808080808080808080831323341343586
:0A34B6003642373839432A302344E8
:00000001FF
